:020000040800F2
:100000000050002021020008270200082B020008EF
:100010009D020008A1020008E9020008000000009B
:100020000000000000000000000000003103000894
:10003000350300080000000039030008CD0800085F
:100040004D0300084D0300084D0300084D03000850
:100050004D0300084D0300084D0300084D03000840
:100060004D0300084D0300084D0300084D03000830
:100070004D0300084D0300084D0300084D03000820
:100080004D0300084D0300084D0300084D03000810
:100090004D0300084D0300084D0300084D03000800
:1000A0004D0300084D0300084D0300084D030008F0
:1000B0004D0300084D0300084D0300084D030008E0
:1000C0004D0300084D0300084D0300084D030008D0
:1000D0004D0300084D0300084D0300084D030008C0
:1000E0004D0300084D0300084D0300080000000008
:1000F0000000000000000000000000000000000000
:1001000000000000000000005FF808F100B583B0B7
:1001100000F0AAF9304B314A1360314A1360314B79
:10012000314A32498B4204D21168196004330432D7
:10013000F7E72A4B1A682E4B9A4200D0FEE7284B6D
:100140001A682C4B9A42F9D1234B2B4A13602B4A45
:1001500013602B4B02E000221A600433294A9342B9
:10016000F9D3254B1B6813B9244B1B6803B1FEE779
:1001700000F086F9694601A800F022F9224C234BD1
:10018000E41AA4100025AC4214DC214C214BE41AE3
:10019000A4100025AC4213DC0099019800F0CEFBBE
:1001A00005461D4C1D4BE41AA410002C0EDC2846FD
:1001B00000F0E2F8154B53F8253098470135E2E797
:1001C000144B53F8253098470135E3E7013C134BB6
:1001D00053F824309847E8E7BABADECA0000002096
:1001E000840000200000002074AE00088800002079
:1001F0007856341232547698880000202801002066
:10020000880000202C0100207803000878030008F3
:1002100078030008780300087803000878030008D2
:1002200008B5FFF773FF00BEFEE71EF0040F0CBF1A
:10023000EFF30880EFF309807146414A10472DE93A
:10024000F04182B004468846124B5E6B9F6B9D6AFC
:100250001B6B13F0020F03D00E4BDB6A002B0CDB81
:100260000D4800F0B5F8CDF800803B4632462946EF
:10027000204600F009F900BEFEE74BF6AB6100F046
:100280007DF90028ECD0034B4FF00042DA6202B057
:10029000BDE8F08100ED00E02813000800BEFEE795
:1002A0001EF0040F0CBFEFF30880EFF309807146D6
:1002B000244A10472DE9F04182B004468846084B95
:1002C0005E6B9F6B9D6A074800F082F8CDF8008056
:1002D0003B4632462946204600F0D6F800BEFEE7EF
:1002E00000ED00E0381300081EF0040F0CBFEFF320
:1002F0000880EFF309807146134A10472DE9F04159
:1003000082B004468846084B5E6B9F6B9D6A074827
:1003100000F05EF8CDF800803B4632462946204684
:1003200000F0B2F800BEFEE700ED00E04413000864
:1003300000BEFEE700BEFEE700BEFEE7704700001D
:100340003F020008B5020008FD02000800BEFEE7FB
:1003500074AE0008000000208800002074AE000881
:100360000000000000000000880000202C01002098
:08037000000000000000000085
:10037800FEE7000008B503460C4A12685AB10B4A5A
:100388001068033323F003030344094A934206D851
:10039800064A136008BD054A06491160EFE700F0F8
:1003A80001FB0C2303604FF0FF30F3E78C000020C3
:1003B800004C00202C01002001230360014B0B603E
:1003C800704700BF040000200FB400B583B004AB31
:1003D80053F8042B01938021064800F015FB0028F0
:1003E80003DD0146034800F037F803B05DF804EB7D
:1003F80004B07047940000202DE9F04385B004460E
:100408000F4643560BB10E461EE0042528462146EA
:10041800ABBE0446384605B0BDE8F08314F9011BAD
:1004280004AA1A4402F8101C0133AB42F6D304AAFA
:100438001344002203F8102C4FF00408E946404604
:100448004946ABBE8046761B002EE3D03546102EBB
:1004580028BF10250023E8E708B5FFF7CDFF08BD42
:1004680008B500F0FDF8024A024B9A6008BD00BFCB
:100478000000000800ED00E008B500F019F908BD1B
:10048800F8B504460D4617461E462748FFF79CFF59
:1004980021682648FFF798FF61682548FFF794FF11
:1004A800A1682448FFF790FFE1682348FFF78CFF15
:1004B80021692248FFF788FF61692148FFF784FF17
:1004C800A1692048FFF780FFE1691F48FFF77CFF1B
:1004D8001E48FFF779FF29461D48FFF775FF1D4C99
:1004E800E16A1D48FFF770FF216B1C48FFF76CFF9E
:1004F800E16B1B48FFF768FF15F0800F0AD115F470
:10050800004F0CD11748FFF75FFF06991648FFF711
:100518005BFFF8BD39461548FFF756FFEFE7314650
:100528001348FFF751FFEDE70C1200081C120008F2
:100538002C1200083C1200084C1200085C1200083B
:100548006C1200087C1200088C1200089C1200082B
:10055800A812000800ED00E0B8120008C812000850
:10056800D81200080813000810130008E812000841
:10057800F812000883691A888A4201D0002070475F
:100588000268033A012A03D80233836101207047C5
:100598000020704782B00023019300932C4A13680F
:1005A80043F4803313602A4B1B6803F40033009331
:1005B800019B01330193009B1BB9019BB3F5A06F0D
:1005C800F1D1234B1B6813F4003F06D0012300939D
:1005D800009B012B04D002B0704700230093F7E77B
:1005E8001C4B1A6842F010021A601A6822F00302C3
:1005F8001A601A6842F002021A60A3F580535A681A
:100608005A605A685A605A6842F480625A605A6856
:1006180022F47C125A605A6842F4E8125A601A6846
:1006280042F080721A600A4B1B6813F0007FFAD000
:10063800074B5A6822F003025A605A6842F00202D5
:100648005A60034B5B6803F00C03082BF9D1C2E72F
:10065800001002400020024008B5FFF79BFF08BDCC
:1006680008B5104B1A6842F001021A6059680E4A20
:100678000A405A601A6822F0847222F480321A60A2
:100688001A6822F480221A605A6822F4FE025A601C
:100698004FF41F029A60FFF7DFFF044B4FF0006230
:1006A8009A6008BD001002400000FFF800ED00E06D
:1006B8001F4B5B6803F00C03042B15D0082B17D0D5
:1006C8001BB11C4B1C4A1A6002E01A4B1A4A1A60EA
:1006D800174B5B68C3F30313184AD35CDAB21549A6
:1006E8000B68D3400B607047124B134A1A60EFE750
:1006F8000F4A53685268C3F38343023312F4803FAE
:100708000AD00B4A526812F4003F0BD00C4A02FB85
:1007180003F3084A1360DBE7094A02FB03F3054ABF
:100728001360D5E7044A02FB03F3024A1360CFE7DC
:10073800001002401C00002000127A000C0000206B
:1007480000093D0010B4012824D018B1022841D076
:1007580010BC7047072910D90F29F9D8A1F108044E
:10076800E4B2A4000F23A3402A48016821EA030346
:1007780002FA04F119430160EAE789000F2303FA3A
:1007880001F0254C236823EA000302FA01F119431A
:100798002160DDE7072910D90F29D9D8A1F1080070
:1007A800C0B280000F2383401C4C216821EA030358
:1007B80002FA00F119432160CAE789000F2303FAFE
:1007C80001F0174C236823EA000302FA01F11943E8
:1007D8002160BDE7072910D90F29B9D8A1F108036D
:1007E800DBB29B000F2098400E4C216821EA0000E4
:1007F80002FA03F101432160AAE789000F2303FAF3
:1008080001F0094C236823EA000302FA01F11943B5
:1008180021609DE70408014000080140040C0140E4
:10082800000C01400410014000100140034B4FF43C
:1008380080321A60043301221A60704700100240A7
:100848001F291CD801280BD010B1022810D07047DE
:10085800012303FA01F10A4A13680B431360704736
:10086800012303FA01F1074A13680B431360704729
:10087800012303FA01F1044A13680B43136070471C
:10088800141002401C10024018100240014B0022B4
:100898001A60704710E000E0074B58601A6842F091
:1008A80001021A60054A1160054A012111701A688F
:1008B80042F002021A60704710E000E014010020C4
:1008C8001801002008B50A4B1B785BB9094B1A6858
:1008D80022F002021A601A6822F001021A6000224D
:1008E8005A609A60044B1B689847024B1B6808BD06
:1008F8001801002010E000E0140100200A4A1388C3
:100908009BB20A49C95C0A4B1960138801339BB230
:10091800138013889BB249F6EC22934200D07047AB
:10092800014B00221A80FAE71A010020541300082C
:100938000C08014008B5FFF779FF02210846FFF7C8
:100948007FFF022200210846FFF7FCFE0222012158
:100958000020FFF7F7FE022211460020FFF7F2FE03
:10096800022203210020FFF7EDFE022204210020CD
:10097800FFF7E8FE022205210020FFF7E3FE02222E
:1009880006210020FFF7DEFE022207210020FFF7E4
:10099800D9FEFFF77BFF02497D20FFF77DFF08BDE9
:1009A80005090008014B1868704700BF20000020A7
:1009B80030B5141E05469BB0184605DA8B234FF058
:1009C800FF302B601BB030BD4FF40273ADF80C3014
:1009D8000CBF234604F1FF33029305934FF6FF73D0
:1009E80000910491ADF80E3002461E9B69462846D8
:1009F80000F072F8431CBCBF8B232B60002CE1D0A5
:100A08000022009B1A70DDE707B5009313460A46DB
:100A1800014603480068FFF7CBFF03B05DF804FB0D
:100A2800200000202DE9F0478E6882469E420C4641
:100A38009046994637D88A8912F4906F31D00223AC
:100A4800256809696F1A656905EB450595FBF3F596
:100A580009F101033B449D4238BF1D46530530D57B
:100A6800294600F035FB064650B90C234FF0FF30FD
:100A7800CAF80030A38943F04003A381BDE8F0879A
:100A88003A46216900F0B4FAA38923F4906343F04D
:100A98008003A38126613E4426604E466561ED1BB6
:100AA800A5604E4500D94E4632464146206800F0C2
:100AB800AAFAA36800209B1BA36023681E44266033
:100AC800DCE72A4600F05EFB06460028E2D12169F1
:100AD800504600F0B1FAC8E72DE9F04F9DB00393F6
:100AE8008B8980461D060C4616460FD50B696BB9D7
:100AF800402100F0EDFA2060206128B90C23C8F8E5
:100B080000304FF0FF30C7E04023636100230993B2
:100B180020238DF8293030234FF0010B8DF82A302F
:100B280037463D4615F8013B0BB1252B3ED1B7EBB7
:100B3800060A0BD05346324621464046FFF772FF5D
:100B4800013000F0A480099B534409933B78002BA3
:100B580000F09D8000234FF0FF32CDE90523049378
:100B680007938DF853301A932F46052217F8011B67
:100B78004F4800F02FFA049BD0B9D90644BF202271
:100B88008DF853201A0744BF2B228DF853202A785A
:100B98002A2A15D02F4600200A25079A394611F827
:100BA800013B303B092B4DD9B8B10FE02F46B8E7D0
:100BB8003F4A3D46801A0BFA00F018430490D3E7E9
:100BC800039A111D12680391002A01DB079204E0C1
:100BD800524243F00203079204933B782E2B0CD128
:100BE8007B782A2B33D1039B02371A1D1B6803928B
:100BF800002BB8BF4FF0FF3305932E4D03223978F1
:100C0800284600F0E7F938B14023401B03FA00F00A
:100C1800049B0137034304933978062226487E1C37
:100C28008DF8281000F0D6F9002838D0234B13BBD4
:100C3800039B073323F0070308330393099B4B44B3
:100C480009936DE705FB023201200F46A6E7002352
:100C58000A25194601370593384610F8012B303A12
:100C6800092A03D9002BC8D00591C6E705FB012145
:100C780001230746F0E703AB00932246104B04A973
:100C88004046AFF30080B0F1FF3F8146D6D1A3893B
:100C98005B063FF536AF09981DB0BDE8F08F03AB92
:100CA80000932246064B04A9404600F081F8EAE783
:100CB80040AE000846AE00084AAE0008000000003A
:100CC8002D0A00082DE9F04791461F468A680B69EE
:100CD80006469342B8BF1346C9F8003091F843203E
:100CE8000C46DDF8208012B10133C9F800302368C2
:100CF800990642BFD9F800300233C9F80030256898
:100D080015F0060507D104F1190AE368D9F800209F
:100D18009B1AAB4229DC94F843302268003318BF91
:100D2800012392062ED404F1430239463046C047C7
:100D3800013021D02368E56803F00603042B18BFAF
:100D48000025D9F800204FF0000908BFAD1AA368A4
:100D5800226908BF25EAE5759342C4BF9B1AED18BE
:100D68001A344D451AD1002008E00123524639466D
:100D78003046C047013003D14FF0FF30BDE8F0875F
:100D88000135C2E73020E11881F843005A1C94F875
:100D980045102244023382F84310C4E70123224657
:100DA80039463046C0470130E6D009F10109D8E795
:100DB8002DE9F04301F1430C0C46097E85B06E29FC
:100DC8001746064698460C9A00F0B38022D8632945
:100DD80036D00AD8002900F0B980582900F083805D
:100DE80004F1420584F8421032E0642901D06929EF
:100DF800F6D120681368050603F104012AD51B689B
:100E08001160002B03DA2D225B4284F843206F48DF
:100E18000A2239E0732900F09D8008D86F2920D074
:100E28007029DDD1236843F02003236003E075298E
:100E380017D07829D4D17823654884F8453055E00F
:100E4800136804F14205191D1B68116084F84230CB
:100E580001238CE01B6810F0400F116018BF1BB213
:100E6800CFE713682568181D1060280601D51B6890
:100E780002E06806FBD51B886F2914BF0A220822E6
:100E88005248002184F843106568002DA560C0F21F
:100E98009580216821F004012160002B3DD1002DAF
:100EA80040F08E806546082A0BD12368DB0708D5F9
:100EB800236962689A42DEBF302305F8013C05F1D8
:100EC800FF35ACEB05032361CDF800803B4603AA50
:100ED80021463046FFF7F6FE01304DD14FF0FF3086
:100EE80005B0BDE8F083394884F8451013682168D7
:100EF8001D1D1B6815600A060BD5CA0744BF41F0C3
:100F0800200121601BB9226822F0200222601022F1
:100F1800B7E74D0648BF9BB2EFE76546B3FBF2F172
:100F280002FB1133C35C05F8013D0B460029F5D1DE
:100F3800B9E713682568181D6169106028061B68E1
:100F480001D5196002E06A06FBD5198000236546C1
:100F58002361B9E71368191D11601D6862680021D3
:100F6800284600F037F808B1401B606063682361C9
:100F7800002384F84330A7E723692A4639463046D8
:100F8800C0470130AAD023689B0713D4E068039BAD
:100F98009842B8BF1846A3E701234A463946304667
:100FA800C04701309AD00135E368039A9B1AAB42D7
:100FB800F2DCEBE7002504F11909F5E7002BACD1C9
:100FC800037804F1420584F842306CE751AE00081A
:100FD80062AE000810B5C9B202449042034601D17E
:100FE800002303E01C7801308C42F6D1184610BD6E
:100FF80010B5431E0A44914200D110BD11F8014BAF
:1010080003F8014FF7E7884210B501EB020307D850
:10101800421E99420AD011F8014B02F8014FF8E735
:101028008342F5D98118D21AD34200D110BD13F8E2
:10103800014D01F8014DF7E738B50546002943D0C1
:1010480051F8043C0C1F002BB8BFE41800F0D0F88E
:101058001E4A1368104633B9636014602846BDE819
:10106800384000F0C6B8A3420BD9216862189342F1
:1010780001BF1A685B685218226063600460EDE77C
:1010880013465A680AB1A242FAD919685818A042F8
:101098000BD120680144581882421960DED11068CB
:1010A8005268014419605A60D8E702D90C232B60B2
:1010B800D4E7206821188A4201BF116852680918CC
:1010C800216062605C60C9E738BD00BF1C01002078
:1010D80070B5CD1C25F0030508350C2D38BF0C253F
:1010E800002D064601DBA94203D90C2333600020FA
:1010F80070BD00F07DF8214A1468214691B9204C52
:1011080023681BB9304600F063F820602946304652
:1011180000F05EF8431C24D10C233046336000F005
:1011280068F8E4E70B685B1B18D40B2B0FD90B602E
:10113800CC18CD50304600F05CF804F10B00231DAC
:1011480020F00700C31AD3D05A42E250D0E74B68C8
:101158008C4216BF636013600C46EBE70C46496887
:10116800CCE7C41C24F00304A04205D0211A304661
:1011780000F02EF80130CFD02560DBE71C010020FD
:1011880020010020F8B5074614460E4621B9BDE8EF
:10119800F8401146FFF79CBF22B9FFF74DFF2546DF
:1011A8002846F8BD00F026F8A0420FD2214638465E
:1011B800FFF78EFF05460028F2D031462246FFF79A
:1011C80017FF31463846FFF737FFE9E73546E7E7C7
:1011D80038B50023054C054608462360FFF7CAF8D2
:1011E800431C02D1236803B12B6038BD24010020C1
:1011F8007047704751F8043C181F002BBCBF0B58B0
:10120800C0187047537461636B206672616D653AEC
:101218000A000000205230203D2020253038580A8E
:1012280000000000205231203D2020253038580A87
:1012380000000000205232203D2020253038580A76
:1012480000000000205233203D2020253038580A65
:101258000000000020523132203D20253038580A45
:1012680000000000204C52203D2020253038580A2C
:1012780000000000205043203D2020253038580A27
:101288000000000020505352203D20253038580AD5
:10129800000000004653522F4641523A0A0000000F
:1012A8002043465352203D2020253038580A00005C
:1012B8002048465352203D2020253038580A000047
:1012C8002044465352203D2020253038580A00003B
:1012D8002041465352203D2020253038580A00002E
:1012E800204D4D464152203D20253038580A0000F7
:1012F8002042464152203D2020253038580A00001F
:101308004D6973630A000000204C522F4558435F13
:1013180052455455524E3D20253038580A00000099
:101328005B486172644661756C745D0A0000000078
:101338005B4275734661756C745D0A005B55736139
:1013480067654661756C745D0A0000007F82878955
:10135800867F7B7875767977787B7F8487878682A6
:101368007F8286848480787674747675787C8088A9
:101378009193928F8B8988827773767C8383817D22
:10138800727073757B808181858888847C7572769C
:101398007D8284838585827E7B7A7B7D81898F901F
:1013A8008B857F7E7A726D717D8F9A9686756A6A53
:1013B8006F777F8289949692857367616776848C4C
:1013C8009292908C89817773767E85837E6C605E3D
:1013D800698496A5A89E96897D76706F6F7C89949E
:1013E800958D7B6C65676E747B848D9292877D7416
:1013F8007580868684776C626E809094877C787717
:101408007F83818385929C9E94867369616A7279D1
:10141800848D928F88807B777B7D7E726D636D81F2
:1014280094A29A86786D6A6F707377828E98968C7C
:101438007B736E74808B99998F8B8A8379726F73A3
:101448006F75707284929F998775635D67708080ED
:101458008B9398958D7D746D6E7D88938B867A7746
:101468007479737B787A7B7E8D99A49A86736D6381
:101478006E6F7C80889095928B7A6C68697D8B966C
:10148800949188847B7367655D5B5D748DA5A8986E
:10149800826E686A747C949CA8A5A7947E655B5C40
:1014A8006D87959E9795857F6E6858595564849B7E
:1014B800AFA48E746A5E6B6E797B8B98A1A3907DC6
:1014C8006864677E8596999C918E8076655B555D8C
:1014D800809AB4A993736359696773737D8E989FD3
:1014E80094816F72798B90968B817772716A61544F
:1014F8005A7699B6B5A0857468747A8889898C8D6E
:101508008F877C666468818FA2978770696166643B
:101518006E8291AAA89C7F6853595D7A89989B9995
:10152800968D83766E6E7E8C9D9F97856D5D5155E9
:101538006F869FA8A496826C675F656F7E8E969D66
:10154800938876706F7C818C8D857B6E685F6973FC
:1015580088959B9485736B6F748488969BA19B92E6
:101568008278706D787F8A827E6C60505E6F8BA007
:10157800A29A857A6E746E7A7A878C95918A7D6E36
:101588006B728289928A887F776C787D929A9A901A
:10159800826F645B6071798D949F9A97887F757666
:1015A80078828481786D5C627082999791857C716C
:1015B800736E78778389939E9E96867A747E8389E4
:1015C8007D75685D708497A09685756A6869656E93
:1015D8006D7E869299948C888685908785746D58DF
:1015E800576B80969992847F767C747A7A819197EA
:1015F800A0978973726E7A7C8279726A6274809419
:1016080098988B897D817877736F797C87898B7FB0
:101618007D757E7C8178736A72889AA8A096817796
:101628006D7470777780849096948D827A777978C4
:10163800776D625568748F97938A81797C7E8381F0
:10164800787F829196968A837C7F7E78706A6472AE
:1016580088A0A49282716B72787D7F7A81828A8F4A
:101668008B857D7C7F84837D6D65717C9099928369
:101678006E616265737C7E848A9AA3A39D93888435
:10168800817C715D5861728C979991827B756F72BC
:1016980071767F8592989894877D786E67615C648F
:1016A80070829495979083807D80827E8183838ADF
:1016B8008D9292857D7B787A756E6F707B81858A35
:1016C800847E7B757576787D80899294908C8079FC
:1016D8007272767377797A78787B83878C8B8A8B2A
:1016E80089898C8B8788898A88837A7370707375E7
:1016F80071717172787D81817F848786827F808312
:10170800878C8E8A86827F7F8389887F7A747579B1
:101718007B7D7C777272747A81838991989C9A9088
:10172800817876797C7A7269676D787E7D7A77764A
:10173800787D8585868A8E8F94958E887F7A7F843A
:10174800817D78737175787D8180808082868986B5
:101758007F7A7B7F848988848483827E776F6D6DAE
:101768006F747A7B7C7C7B7C828A90939598979720
:10177800918C8B85796F686A6F71706F70727B7FDF
:10178800858688898D90908C858585878783786CF8
:1017980062646B6F747878777B7D878D949799975F
:1017A800939089867F7B7C7E7C7B78777776777A47
:1017B8007673706E757B858887878C8D8C8B89880E
:1017C80085837C746F6F7073757B7E817F80848462
:1017D800898B9093958E8A848487847F766D6B6FCE
:1017E8007173727373787C8383868F9492908E84DE
:1017F8007F7878777674716D70757B80858787863A
:101808008587898F90918B8884817F7F7E7A7B7B87
:101818007A77777575777C7B7A74797D8186888A03
:101828008A8987868083827C7776757A7E838587A6
:10183800837D7A7A7E7D8282888C91919089868454
:101848007E766F6A686E747B7B7C7C8181858486FA
:101858008989898A86817F77797A777373717881A4
:10186800858488898B8C8C8A838585868586828108
:101878007A797B77726D6C6E7276797D83838482D8
:101888008582838383848685838282878783807E1B
:101898007A79787A7B7C7A79767A80878C8F91903E
:1018A8008E898680807F7E78736C6A6B6E72797C95
:1018B8007E7F8184858B8C8B8B8C898882818182C9
:1018C8007C747074788086878782808386868C8F04
:1018D8008F8680746963697079807D7F82848B8D3F
:1018E8008A857D78777C8287888A807B736361713B
:1018F800829398969087888A85867C75706B737DAD
:101908008B94948679685D6473848F918B817C83D2
:1019180085868374706A727E8B98978F8174635DF5
:10192800697E939E988C827C827F807E787775858D
:1019380090A1A397846D5F4E50637B949B928676AB
:10194800757F7B7F79767B8093969C9388736359A8
:101958004E617FA1B0AB97806F747A7D84757E7B72
:10196800889596937F796465565B6F8BA9AA9A7D53
:101978006C637476827B777B7B928D968782756C9D
:1019880065556E87B2BBB3927560626E728175855C
:1019980082979C98907C7A6569525D7091ADA58F0D
:1019A8006C5F5971758983878E8D9C8D937B7C6E56
:1019B8006A6058758BB4B0A87F6B5D6B777F887A47
:1019C8008D859E91918175705E5F476477A5B1AAF8
:1019D8008F7269697F7B8B7A8B889392817E68731B
:1019E8005E68526883A8C6B5A3746A5E7879887DF4
:1019F8007F8D8EA083856B766B6D5C58798FB9AAC5
:101A08009F7263576A757B827B938CA48E8C7876E1
:101A1800766B6A567789B9B4A47F615A60787788FB
:101A2800789494A699897F6E7B696B4C6A7BA2AA8D
:101A3800967F5D6367857E8A768B909A9B817E68A8
:101A48007A696D536179A0BCAA9B6F6B66838089A4
:101A580079809196A1828065756A6D555E7F9BBB82
:101A6800A1916666638182857A7B908B9A7775628D
:101A78007574796A5E819AC6B3A27467667E847A41
:101A88007365888CA9908772737A706951778AB761
:101A9800AA946C5C62738B7D806D8F90A18B756E40
:101AA8006C7F747554778CB8B6997759657393853C
:101AB80087708C94A4997C776B7F6C67435F7CA854
:101AC800B39276596A769685846E8497A19E7B79BF
:101AD800687B6D69495D85B0C8A6875E6773948821
:101AE80081717F989C9E756F647B7571555D85A823
:101AF800C59B7C56626F908881757C9995966C6BB6
:101B0800657E7E785B5B87A7C8A3845C6475928AD0
:101B1800796E70989BA67D76748B887555447294FF
:101B2800C0A07E575C6C85867573739F9EA27F7676
:101B3800768689735A437396C2AC886464798B8DB0
:101B4800717574A0A5A4826D737F886B593D6B96DF
:101B5800BFAF8263617A858D6F73749CA5997E6629
:101B68006F78886C5D3F6798BEBD93766D82888D6F
:101B78006D6D7394A89C866A737A8A72614A6498B8
:101B8800B5B5866A5F73787F6B697892A79380672B
:101B9800768091806B566093AFB8917666797E8235
:101BA8007067778CA69A8D757F848E7D665356866E
:101BB800A4AC8A7063737D7F74687A8DA79E8E75D6
:101BC8007981877F64544C799DB19E84767F8A871A
:101BD8007F6C77859F9C917D798285806452466A67
:101BE80094A79B82757B89827A6871849B9E8C7886
:101BF800707B7E806A5B506A9CB4B18F7B768180F3
:101C08007869698097A2938370797F8073625D6831
:101C180098A9A689726E7A7C6E65617C95A898856C
:101C2800777C858579635A5883A6AD967F777C84BF
:101C38007B6D61758CA6A79889858B827A625954C9
:101C48006F919E9178727582796F64748DA2A48E5B
:101C5800837C8A847C685B56648EA4A48C83808A87
:101C6800887767688495A493837A8385796E5F63A0
:101C7800638098A08F7F7E818573675B738A968F58
:101C88007E7B7E8C7E7567696B7695A2A2918E8825
:101C98008B7B695B607F8F998C8A8B958D786B6362
:101CA8006C66768A948B83817E7F6E675F758B9076
:101CB8008D868B919784776E717168768A979393E6
:101CC8008D8D84766E687C898E878B8F9288726CF6
:101CD800676E665F718995918C868E83796F6E7C4D
:101CE80083857F85868C807575787C6F667C979FE9
:101CF8009B90898F867C6E6B757B7B7B8289948DAC
:101D0800847C79756658718B938E87878A8174670E
:101D18006375818280888E9995887F8181776674C2
:101D280083898883848A8A817A707D867F73757EA9
:101D380092988D847A767264666E737B8088929AA4
:101D4800918B7C7777746D7079838E9090847F7D8A
:101D58007C81878885817D7D82817E7F7F7F7C7A7B
:101D68007B7C7A797E858C8C837C7E848480787772
:101D780072737375757472717A828B8A8C9094966B
:101D8800938F90908D877B726E6E707174797C7B67
:101D98007A787C80818180848585868A8D8D847B14
:101DA8007978757474747A81858786858584817D50
:101DB8007F81868C90908C89837F80776F6E747911
:101DC8007B7B7471727672797B7F81838A94978D1D
:101DD8008C8385807E7E7D78707169747882868D2B
:101DE8008A8B8B8286828683857E847F766A6A71F7
:101DF8007375767E86918F8E8C8D887E777C8385B1
:101E08008C8A8B7F746164717673707F8894888CF8
:101E18008D8C8178797D8B7E84889A918270667B9F
:101E28007973698490968A828C887C636C717F79D7
:101E38007D919790706C63757C7571788F8A8D7BB6
:101E480088857B77829188897D9597968177736855
:101E580077757B73817D7E837F877A817C88818497
:101E680084888F7C7C6D76666E76746E71858691BB
:101E780085929794908C8C7A7E7E93948F847B7EC7
:101E88006B7368655B717E8994919A85867A806E9A
:101E98006B6F7F948B8D7C7D666B7575747890887D
:101EA8008E828B8B888789907D858090837E7977D9
:101EB80074687E7674657B7F79797C8E868B839156
:101EC8007E7F848A9183877B8570797D6F6064804B
:101ED80077807D928F8B868A8F7B8B8F9985827C8A
:101EE8007A75667B74726A86877B7E839481847F29
:101EF8008E7D818B8E8B778178806875786A627227
:101F08008E7B8386978C85858A856E81848A798382
:101F1800867F7A708C7F7C738D7E6B7988978183BE
:101F28007E8B737D88817A6F83777E717F7E6A6A04
:101F38007C927380859084818D8C8C7B928A8B7F38
:101F48008E8C7E7D72856A6567807167838C9482CA
:101F58008A8184757E887A8080927D7E71757664A8
:101F68006B7688708890968C89908890849A857F03
:101F7800778584778070836A6F6F8375718C888F9B
:101F88007C8E828876808277807E8D758071807D58
:101F98006D757C88739391907F858A8385778C771C
:101FA8008180938A8182727E636D6F826F778A8661
:101FB800887A88787D6E8080808B8E97828F7B84EC
:101FC800706165778075948A897A898987847C8627
:101FD800747F7F8F8186837E876F72707A667C8E2E
:101FE8008F8E87918387788379797C8081758070DB
:101FF800816F6F798A847C9285857C8F87888080C1
:10200800857783818A757F767E7E6D7682917F95CE
:10201800948D7D7D7C75776E7F7581828A7D7979D7
:102028006E79636B778F7F8897918C8890808375A2
:10203800847D7E858D8D7D8576816F6A6E817E77C4
:102048008F8B897D89808278787D7681818B787F76
:102058006F7574676C7886748F9195878F8E8E8C68
:10206800828F7D848292817E756D76656A6E8571B8
:102078007E8C8D86828C7E826C7A7884888F8B7930
:102088007B6A807371728D88819690907F8D848B26
:102098007A7D807A8386947B816E76756E6E7D8C70
:1020A800778A8487767F81827D7084808C828F7C1A
:1020B800787472827274779784878B8C857B87801B
:1020C8008874837F88888C89737460746C6B668469
:1020D8008D84928D92808A7F86747683858C838E98
:1020E800757560696F696A7A98889389948C8F8A04
:1020F800898876807A8B808878776E697B6F6D6B3C
:102108008F8A918C8E928E8F81846F79737F80866F
:102118007F73786773686A69878C8B908A948E97C7
:10212800858A7E8284888E8888747C6B78736D67D4
:10213800788B81897B857F8E85848181887E868165
:102148008A76797072736A6A6E847D8A8A95969A9D
:102158009185857C89848C8690847A7169706364A2
:102168006683848580818689908080778481838254
:1021780086847774687572746F7F87888C8B8F8D6F
:10218800968C8B7F848887827C827B7A6D7273764B
:1021980071767F7A7F7D817D878786807F85858838
:1021A80081848388807A78787A787D77777C868549
:1021B80087898788848787898688888888807970CE
:1021C8006B696F6F6B6E798083888688898B8B8E3D
:1021D8008E8D8D8B8678706B7070737773757C813C
:1021E8007F8284878A8D9092928F8F89847C736C8A
:1021F8006E707075706E76808181808285898A8A1A
:102208008E8A8D8F8C82776E6D7271757775767DFB
:102218007F7D7F8081848C8E93949596938D857C29
:10222800747773736F69656D767777797F8288863F
:102238008A8C8C92928E867E777876716E6D6C70B1
:102248007B7F82868C8E92928D8C8B8F91908880EA
:10225800787778746C66626570777A7B838B8F8EFB
:10226800878481848B8E88807B787E7D79787A7A62
:102278007A7C7B7F878D8D8C8885878A908E8A80F3
:102288007B7576766F6D6C727476716F737E878AE4
:10229800868184889297958C84837F807A737377FC
:1022A800777371707781898B8B85858A90959391E7
:1022B8008A857D75716966686A6B6C6D6F79888FC0
:1022C8008E8886898E969692908E887E77716B71AD
:1022D80076726F6C6F77868D908C8483868B8D90E9
:1022E80090908E8779726E6C6E6E706E72737C864B
:1022F80088847D7E7F878D9193959591867773707D
:102308007877746D6C72788283837C7D7E838B9002
:10231800999EA09A927E7571706E696B666E7076E2
:10232800797E7C77797982889399A09E96877B7845
:10233800777B74706A6E747A80808380817E8489EA
:102348008F939897918C807D7A7D746D6A686C6D97
:1023580073737D7D7D7673767E8B909695938A8D4B
:102368008C8C88827D7578787B787C7978787376A0
:102378007A83858C898986888D909389817777700F
:10238800716F6C6F70726C6F737D848B89898887AD
:1023980090949B94938C8A8987827A79706F696903
:1023A8006A757C7F7F7A77747F8087898E8D8E921D
:1023B8008F8D89867A786F6A6A727C808279716972
:1023C80070727B808790979E999B949389847B7782
:1023D8007B7B7F7A776B6A63686B70747B88888E87
:1023E8008B908D95958D898182808782817772699E
:1023F800696D6B73747D7C848384858B8F898A84F3
:102408008D939C978F82777470726C726F777A7CD9
:102418007A767777817D7D77808A9396938E848488
:102428007D807B7C76797A76797678798683827BEB
:102438007D868E958F8B80807D84808082858A853D
:10244800827672717774706A6B78848D8A847776F5
:10245800767C7D8184869092928F918C8D887F7313
:102468006E727B858480787874767474767B8386C4
:10247800898685808989847971767F88848278784D
:10248800737776777E818685867E8183898986843F
:102498007E848993918F84827C75706A71747B784D
:1024A8007A777B7C7E827C7872777F8F93918B8919
:1024B8008883837C7F818482807B787B7F827C7B1E
:1024C800787C81878987837D7D77746F767F888D17
:1024D8008D8A898B86847D787171767F86878380E3
:1024E800817B76706E72787B7B7D7F858C93908BF9
:1024F800858384878787868385817B7370757C7ED7
:102508007B7674787A7C7675777C81899091928DC8
:102518008E88817B78797D807B787274747A7976FD
:10252800797D828586848A8B90908F898587878933
:10253800817D7A808280766A68686F72787B808015
:1025480084857E7A797D80878A8B8B8C8E8E918A22
:102558008582817F7C7A7A7E7D7D79777476797BB6
:102568007B7A7E818989878079797B7E808586865A
:1025780085857F7676777A7C7F7E7F808284868663
:102588007E7B7B81868787898C8B8983807D7F7E14
:102598007B79797A797A7A7B746F6E70767D8184AB
:1025A800898D8C8481818384817C7E83868A8B8CCF
:1025B800867D76767C7E7E7E828485807D7A7C7D33
:1025C800787472787C82838587837E787D8287851C
:1025D800858586807C7F7F837E7A7476797D80810D
:1025E800837F7A757A7E8385888A8C8E88888486AC
:1025F8008483807E7E7C7C797C78736B6A71797E3B
:102608007F817F82818487898B8A89848586888770
:1026180086827B737175797F8183838585807D7ED2
:10262800807F7F7C7B7B7F868B8A857B7174777BC1
:102638007B7D7D7D8183827F7E7B7E7B78787C81BC
:1026480085868585807F8085888A87868785858435
:102658008684847F78727072787D7B7B7774706FE4
:102668006F727577818991939492928E8884808213
:102678008489847F7E7F7978797A7A757373787E96
:102688008385878B8B89817B7C83817D7C7F867F1B
:102698007C787A7676787A7F8289898A84837E7F45
:1026A8007B81898187868E8E8A8681807C7A747305
:1026B80070767C7E807D7E7A7D787B78777C83855A
:1026C800838483867E7D7A837F7E8483827F7F7CFA
:1026D8007F818A898986858488887A7A7B7C7D7DD2
:1026E8007073797C7E776D7078778082828790921C
:1026F800958F888882797676726F77787A79777805
:102708007C82808380898B9192959596947E7A714C
:1027180071636371767D747A7A8781868A889894E2
:102728009C8E9380827A706E5E5E5577707A757330
:10273800808D99919F8E9E9C9B958B82797A6C73E4
:10274800665D556F7A8485737D8995989E868E8E91
:102758008986786F6E6F686C635E57758090908815
:10276800929EA79FA1878C807A7B7A7D7D7D7777E3
:102778006D67576A778A8D85898C9790937C7D7A67
:10278800798482807C7774797069586F7C919C8B8E
:102798008C8A98939C8C887F728184857E7A767CDB
:1027A800736C5A6473808F85867D888C968E817A47
:1027B8006F7F8082847D797E756C5E697782938D68
:1027C800908E96989E96877F6E707B7F8886828291
:1027D800756F585E6D7887888C888F959D91837802
:1027E8006F757E80878A7F85766E59586B75888667
:1027F80089869096A19C8D8576777A83868B818849
:102808007E7867596E6F807E827F8389979F8D87D8
:102818007572757D858B837F7A7169596D6C798046
:10282800818789959FA6928F7D727276848F8E8616
:1028380084786B55626973807F8B8D949BA3938397
:10284800746C707485918F857A6D604F5C6C7A8535
:10285800848A8B919DAB9F8E81767A7E8893918CAA
:10286800827B7360636D747F7E7D82848B9A96858C
:1028780073696C707A8C928D8175746265717B86D0
:102888008284899191A0A2978271717078899490BD
:102898008A7876605B696F827C7B7C888F9DA18F4C
:1028A8007F696A6F79838F928D796F6354666C80C4
:1028B8008484848B979CAA9F92746F777C868C9073
:1028C800897E70675561687A8981817E8790A29D2B
:1028D8008D7668747C898B8C8A80706A5E64717965
:1028E8008A8487878E99A1A09282696A737D868976
:1028F8008E8A7E73665F6C7487857F8187969CA0BD
:10290800927C6767757B848788897F706359657255
:10291800828A8284848F979B9383756A7581888C59
:102928008F908678716268737E8C857F7D8591949F
:10293800938679696F7E7F85868581766F65606C01
:1029480075858682878A939999918577717E828524
:102958008C8B8C7F736A5F6A747E8680838891977C
:10296800978F81776D78827F8384837A6D65595DCF
:102978006D7B8B89898E939B9B948579717A8987E6
:102988008D908F8B7E71655C67727F847F8789905D
:10299800918E8379716A797E80858985807973665D
:1029A8006674798785888D979C9997857A6F7A81DF
:1029B80081868987837B6F685C686D7980858E9056
:1029C8009993938581777682838686887E7C6D69E4
:1029D8005A606E758782898A9896968D7E797283F9
:1029E80087898489858883786B5B6C72807E808513
:1029F8008B948E92837F71737B8385818281897E9C
:102A08007B63636E75828186859490948C7B716DEF
:102A18007C8288848A878F8C8276626D73818184B8
:102A2800858A9191988A8273727A827F777679867D
:102A38007E7862606E77848182818F8F9796847D9D
:102A48007C8A8E8D807D7F878B8176626B787F8094
:102A58007C7B7D8D90978B7B71727F7F796B707B90
:102A68008B867B6B5F717F8D8883828C989A9A8125
:102A780078777E87867D767C7F8B82776466797FA0
:102A88008C81807B8A8F95927D7B7781807B6B6D33
:102A9800777C887C7B67727B82877E837E9592A019
:102AA8008F8A88868A807F747D7A85837673636E41
:102AB800707E797A7C81968E957D867D877C797605
:102AC80079827E877E7D767979847F837E847F8B09
:102AD80080877E858481817A7E75827B857D8580ED
:102AE8008279837C817E808082817F837C82777EED
:102AF800758175837E868188827E797480757F75FD
:102B08007E7789828B81818483827E86808D8B9279
:102B18008A887A7A70797F7F7B747576817576700A
:102B28007A7E847F86838189888981817A88808A70
:102B3800877F797575737E777F797E8085838389B2
:102B480085908B8F898D88918A808070746C6F6274
:102B580072696D6F6C7679868491848D8B8F919470
:102B680099969A858D7D79726E6A68736A7C778387
:102B78008489837C7E778A879590948E8C867274FC
:102B88006A74696F69717375857B887A847D8A88B0
:102B9800919A979F949286897F7A756E6F6B6C690C
:102BA800737574776F7A778583928C929490928AF2
:102BB8008E878A7D78716F6C6E696C6B71727B77AA
:102BC8008688919398938E928B978B8E81877D8040
:102BD8007679736D6360636A72787F838A8A8A8183
:102BE8008C85928D9991958A8B8982766C6B676DAD
:102BF8006974707D757F747D7D85889093949791B5
:102C08009793958886797A6B716C706B6F6D717418
:102C1800767E7983828C869089928F918989807F4C
:102C28007C76706D7A737B6D75758A859087898CD3
:102C38008C8E8A86757F7886858A7F857C7C696993
:102C4800696F7172777D88838F828981887D7F76AD
:102C58007E868E97989389827A6D6C6F6D75737E78
:102C68008292899280827F7E7A7C7D7889858C8A1F
:102C78008B857F7869696D69747278798A858E85A4
:102C880082888789858C818C8791959491867F70BD
:102C98006B726D7569696A7A80888A7B827F877EA4
:102CA8007E788589909F9D998A7F6F5E645D656651
:102CB8006F7C8D9A989A8683797F7E807F858C90A9
:102CC8009999978B7668535B6169706E757E92905F
:102CD80095837F7D8081858381868F99A19C8D785E
:102CE8006B605C6A66706B74798D91968D7E7D7E63
:102CF800868B8D8C8F8E9094948D816D624D5C5DEA
:102D080066666773899DA4A58E837C8285897E7D8E
:102D18007C8997A39F8E705E4B5160617173828F1F
:102D2800A3A7AB97877D75757D7C7F848A949899D6
:102D38008D7B63534B6066757778818F999E9680FB
:102D4800726A717C8589918B949CA59D9075644F5E
:102D58005567728481888C92909484776E6B707BAF
:102D6800808685848E969B94806B59505F68797EA7
:102D780081869399A09789796B69757E8591909CD6
:102D88009BA19C8F76634F545C67797B878D908E6F
:102D98008B7E786D6B747D858E90989E9C968974D9
:102DA8006550525E687E848D949594968A867B756C
:102DB80073787E8D96979C9491847567564B5A616B
:102DC800758189919092938B80756C7079828991C5
:102DD80092999A9C958879675154596A7D858F9400
:102DE800918F8B828072706D77808F949C9F9C9856
:102DF80086746252505C657C838A9393979082793B
:102E08006E6C6E757E8B92999996938B7D726154D8
:102E180060627987929E9C9692847872686D727CC3
:102E2800868F949B98958C7A6E5F505960718387D2
:102E380090928E9089848175737276839297A09B05
:102E4800978F83746958555C638088969C9A999388
:102E5800837B6D696E71828B8F9293918F8373657B
:102E6800514A58617B8D99A29E9993827D7771759D
:102E7800737E8A989FA5A19C8C7A6C5B4C4E566792
:102E88007D8591929091877E75686C717C8B9AA2F2
:102E9800A299938B7E73685B5459607885949E9B46
:102EA800978C8280797675778088919897928F84AD
:102EB8007565574E57607C919CA198948D7F787169
:102EC800696A6B788795A0A39B8F82756A5F545E49
:102ED80069788B95A2A29B9586776B61686A7686DE
:102EE800949A9B989082756D62555661738C9AA7D7
:102EF800A89A8F8076716970747A818A92958F8B7F
:102F080083776C625D606D768D979FA09A968A7EB6
:102F1800796D686B727F8A97A19B9081746B6158F9
:102F28005561687F8E9DA39E988C7C7069666C71D4
:102F3800818F9A9E9C96897F766D61565E6A84968B
:102F4800A3A8A092867B706761676A76828F95973F
:102F5800928A7F7169625D6775899AA0A39D928440
:102F6800746A6561656E7D8C9BA4A59B8B7F787464
:102F78006D62676C7B8E979A958C807366605C61D6
:102F88006B7B8A99A2A4A092877B71665A616B8039
:102F9800929DA39E9283756B6B686D727D899AA4CE
:102FA800A299887A6A645D58626C84959F9E958818
:102FB8007E756D6A666B748595A5A8A294827669FC
:102FC800655A5D67758B959C9B92847A6F6A6A6F68
:102FD8007A838F98A29F9887796D67635A656C7E0C
:102FE8008F989B92857A75707573767A85909A9C7E
:102FF800968E7E786D6A5B5F6C80979C9C938A7EC8
:103008007D74726E7177818B93999390847E746EC0
:1030180060616E7B8E959289857C7B7676757572FC
:1030280076828D96939082837D816F666A7189948A
:103038009C98907F817B8279787A7F888D9487812C
:103048006F776B6D575763738F9CA2918A7A8278DA
:10305800837F8480828B8F8C868A797C6D705D6596
:103068006B84989D9D8E8776787480787E78828030
:103078008989847B6E6D67685D757D98A4ADA09025
:103088007777777C817E847D8E8F9A857E6B6B6661
:103098006E666F79869EA6A58C827374707D737632
:1030A8007380888D847E716C6E7471717C85A3A128
:1030B800A3948C7B7F75786E70757A8180847A751D
:1030C80071797E7D727F8A9D9E988B7970757278F2
:1030D80075787E7B828584777275808A83828F96E5
:1030E8009F9A927C6D64696D7B8082827E87817DE8
:1030F8006F6F738385848E969D9F9B806E5C5F68DF
:103108007387898E858B87807465676973717B8DFA
:103118009CA9AC977F67555C627B868F9094998E4B
:10312800866E6D666C676E8599AFB5A788755A5BB4
:103138005A6C7A848A929B8E887071686F62687EF6
:1031480091ACAEA58A7E646964757B81848A958B0F
:10315800877079737D6C78869AABA491736C5D6A7D
:103168006A7E808B888F887E6D646C71736C86959F
:10317800B0AFA6877265686A757F8A9496988A7ECA
:103188006A6765655B6B85A7B2AA947C686867689F
:103198006E738B969D908175706C655762769CB046
:1031A800A9998B837F7E7573708192978A767274E2
:1031B800786A5E697B93A299847C7A8481827E7B1B
:1031C800868C8D7E726873756A6C77909D95887908
:1031D800737785888E8A90948C816D66636D696F2C
:1031E8007E93A09E866B696F7F838D8E949C998950
:1031F8006B605D6C66657892AEA98F716460747B54
:10320800828D99AFAC9B776356615A5D6F86AAA988
:103218009972636073757D8794B3B2A7826D646A8F
:103228005A5D718FAD9F8A675F5A6B6B7A7D93ACDD
:10323800A79D7E7871725F707D9FAB9C8166636687
:1032480073697A7FA2A9A78D7671756C6C8596B023
:10325800987F6362626E626C788DA299856B686EE6
:103268006B6589A1C5B99B7866636F6D677382A426
:10327800A0896E6766645E7A90B1B79F8478757B23
:10328800726473829F99816B605C5252738FB1AE86
:10329800927A767E88837A8D9DAFA2857063625319
:1032A800597690A795786C7174796E7691AABB9DC2
:1032B8007C626160526584A8B1957268686B6E61C2
:1032C800738DB1BDA48C79745F576C8EA99E7F6C89
:1032D8007072766D677B8FA8987F6F6B655E7C9A3E
:1032E800B7AD8D72696A696D657A8CA8A88E7B6E98
:1032F800644A607FA6B29D89797C74746170849BEE
:10330800A588786B6A515B7FA6BCA4887479757AA6
:1033180065667E93AA97897879574C6787A99C8BAD
:1033280076817E81746C8596A78D7E7173604968FD
:103338008CB1A58E74797D7970617D90A99A918AF6
:103348008A76525F759B918170757E7D79667985E5
:10335800928575777B78607797BBB28A706C757346
:1033680076667B8E9D9381827E7A545A7BA1AE933A
:103378007C7683767667718E999173706D6E5354EF
:103388007BA6BEA48877807C766D76919F9D807D94
:10339800818162466187AC9E82748187786E668D72
:1033A800A2A6887074776A495F89ADAC8A72778201
:1033B80075665C79A1A8997D818B845C4C7097AF08
:1033C800967D7587836D606795A79C7F737B7B6609
:1033D800425D8EB4AF84727A8A76645878A1A395D8
:1033E8007F858B815C446F9EB79D78708885645417
:1033F8005A90ABA182767F85734A4A84B8BE967884
:103408008099835F4C5E92A0948186968F673D4138
:1034180084AEA8807389A28562596EA0A08A747947
:103428008C845F465095B8AA8279899A7B55586FE3
:10343800A8A9988388908159484B7FAC9F86768746
:10344800947E5558699AA493888B918769565266D9
:10345800A1A59B88898B8059525F82A89D9C8E94D8
:103468008C7E5E534F7899959183918F815A5B63D7
:1034780090968B827E8F8D7B636562929D9A807712
:10348800808574637280A79896868F9082695D5B49
:10349800628E919A88857C735A5662799A8F968B38
:1034A800989489776F686988919E8981838673610A
:1034B80061718E8D8D7E82807F7571706E92A4A9E8
:1034C8008E847B7A6D5C606F9193978B8D8778681B
:1034D8005F5F5B7C9AAC9F928B938A6C6569858CE5
:1034E800877A7981888772675B6A8A978A7E8793E9
:1034F800978171748D9B8D796F7C807C6F6F6F70F5
:1035080082919389848086796C747F9497948D8B4B
:103518008377685D625B68869896928C8E8A7463FE
:10352800657F96958F9096917F6B6563657B8B938E
:103538008C888684716066769197938C8B86786C7C
:10354800656A667290A29E8E807A7B6C656E8EA389
:10355800A0958A877E7668665F617F999D8F7F7A5E
:103568007D70666E7C93978F898A887E7671736B7F
:10357800798F93857A7780836F6C75919A94898512
:10358800868683747266738F988A7A757F826C6276
:10359800667B9493888689898177736C6A89989801
:1035A8008A8586887665647289888A86898485781A
:1035B800736D6A8295968C88838571616372879032
:1035C8008B8286847F746D6A67889FA297908D8BA3
:1035D8007963646B888E8A81827979716761638681
:1035E8009B9C908B8B8E7E6E6D7C8F908A86878459
:1035F8007A68615E698C9D978A8888866E64697E20
:1036080091918D8A94887B645E57708E948F89908F
:1036180090896D6B6D828C89858C928878655F65E1
:103628008795968A8A8B8A6F5F6478918F8E8D973B
:103638008A7B5D525271949B9689929282625E69EE
:1036480088959794989B8E786153597D8C94878E32
:103658008C876B5F60798F91918B968B7E675C58B6
:103668007E92998D8B8D856F5D5C718D959A919AFF
:10367800958A7463587A8D938E8B8C8065535A6EB5
:103688008B8B8F8A928E82695B59869F9D9698A0B4
:103698009172585A6B7E7F8A909B968267515783A6
:1036A8008F868291A79C7B656E8890817A778587C3
:1036B800765F5068979B8C81879585685E6F909F31
:1036C8009895959C8E7153496F8C8C867F8D927BD3
:1036D8006362768E8D898A9196806C576690918701
:1036E80083879488645B647E8A89939CA38D7256D1
:1036F800577D958B8486959678616276837C7B86E8
:10370800938E745E567A9E998D909798795C5E70C8
:10371800827F8190A8A386604A608484787C93A67F
:103728009174717C897B6C788D9580685B779796AE
:10373800807D8C9C8D6B6A7A8C867B80949981665F
:10374800536B8D88767588998C6D72859286798091
:103758008D917A6256779593837E89917D61697E92
:103768008F80788B9D998067648B9E8B7574838717
:103778006F5D6B86947F7987938264505D8B9E8F93
:103788008899A69B725F6E888B7373879A87685532
:103798006C95967D73899D8F69677B97937C7C8DEB
:1037A800927858446991907D7C8D9F8C6F6F7B8E49
:1037B800817C899A967C60608CA08D757E908F6FD5
:1037C8005C667F8B797B8D9F9074555A87967F7046
:1037D800829B9C7E747D8E8C76747D877964566F0F
:1037E8009DA68F8088918163667A918B8187939655
:1037F8007C614D6A8F8F7E768696876F76889B8DE3
:103808007D7F807F6D5B52789FA1938C918F765CD2
:1038180062788F898A979C9375594C6B8C887D7FC9
:1038280091957D656881958E8A939994795E4D66A8
:10383800898E8A89979D84655E667877798A989952
:1038480089736274908E7E77808F826E7180918C7E
:103858008484868370645C6A8D9A93929AA3946E2A
:103868006068787B767D8890867261637F8E8074CD
:10387800798D917B778496998D8D8E8B816A5C5634
:103888006E8D908788939B816465727E7F82909706
:1038980095857768647F87807C7F8A8771727C834F
:1038A8008582888D867F757064698B979B9A9895B9
:1038B80085696A6A70787E8C8D8B867C715F61827F
:1038C80089867D808D8F7C7B7B858A8683818380BA
:1038D80074675B6999A39A89888D8362606881910E
:1038E8008F908F8E817160585B8998988B8F968C9A
:1038F8006E63687589848C8C8F83776A675E829D16
:10390800A1988D8F88735D636B8B8C93908F887F64
:103918006C5A4E598A9BA2949A9B8B685F657B90E0
:103928008B928E948E7E645D556F8C8E8B8B948F6C
:103938007B6166708A8C8B909898867068685F77D0
:103948008D9A968A8079685D657590979C9A968A13
:1039580079746D685E7898A896837F796853586FF4
:103968009398958C8D8E837469685E7595A09489FB
:103978008A8B7D6764758F8E83868C918279767148
:10398800676B86928575798A8B71687282908C9143
:103998009291877C766F67627E9599838290877112
:1039A8005C69869B908B8F9A927B6C5C5957688A6E
:1039B800A09D9893907C635D6677837E85979686B5
:1039C800777B807B6472919A897E86897D68718213
:1039D80098928680817A717173776E6A86A29986C9
:1039E80082908D715B6C899D8B7F8C897964667000
:1039F80079686D95AEA697908D8465535E778587B7
:103A08008EA09A87746E695C48639AA0887E8F99A5
:103A18008A68677F958E82919A8F7A6665665C5907
:103A28007CA2A1918A908D7356637F8E857E8E9B32
:103A3800917D757A766160879B9088878C836759BA
:103A4800728D978B8F9A9D907D7774614A5E87926D
:103A5800848394A4916A647B8984777D8D8D7C723C
:103A680076776E6D8C9C908D8D8D825D506D8A8E73
:103A780081849EA99373656C65586D8E948E898A2E
:103A88008A715B6984928D8A949F917868655E508B
:103A98005D88A29F9F9B9B8C6C616D7A797B8B9BC9
:103AA80099877E7D7C6154728D8E87878589706445
:103AB80067748082909EA99E94817661536379830E
:103AC8008393999C88746E7778717989938D857FB3
:103AD8007A6F5F6C8B8E8C959790836C6A6A686C32
:103AE8007185989D9A928175646C7E7F7D878F938E
:103AF80086757179857C78818F8A89847A6D5D6213
:103B0800737D7B8E9B9F9388857F7F7877777D7A7F
:103B18008085837A70767D817E878E948D7F797695
:103B28007474757E928F8C8B83736D706E676B7FE8
:103B38008F958B899090837E7E888E877C736E6C40
:103B48007677716E8391958D828186857B787B836C
:103B5800827F747172777E8582828E96917F756F6F
:103B68007A7B7F8093948F897E716470777C72777B
:103B780079857F7C80868E8E8D8A95908672665B2D
:103B8800667781858F8D8A8C8479747E8388868B0D
:103B98008E8E7B706A6E727F878D8B86867E766549
:103BA8006871848B99989B8E82706A71747C7F830C
:103BB800808A7F7E777877878E929497907F6C5DE6
:103BC8006466686A84909B8F9088847E7976777C17
:103BD8007F86777672807D7C788287908A8A8880D3
:103BE80080817F7E898B90827A6B7375756D737611
:103BF8007D827D80868E898B89908E928882726F75
:103C08006E72686674808A878F8F99918D82847BA3
:103C1800757270717B837F80797E7D847F828087D7
:103C2800888A827F878580757C7F877E7E787B7592
:103C38006F70717A899693949393867C70777A766D
:103C4800717371757D79777583889294989B958443
:103C5800747674736E74767C8185857E7E7D807BB8
:103C68007E8582808087878783837F7C78787C7352
:103C780070727678828D908C88898D908B89887CFB
:103C8800716F71726E7179818A8F8D88878587804F
:103C98007D7E7E79787772737279797F8390958645
:103CA8007C7F8886817D868D90877E7D7877766F0C
:103CB8006B6E7979797B868E94928C908F958B7EBA
:103CC8007174746B666B7975726E7E8D9091928F3C
:103CD8008C8C868580828384837A76746E6A6C770E
:103CE8007F87878280898C837D7C8B92908B8E8264
:103CF8006F5D5A616A6D78848F9194918D90908CE4
:103D08008587878578766C6E6F76787E77808581F3
:103D18007D7B878B8B83888789787676807F837D88
:103D28007F7F7F716A727988838A91A49287757878
:103D38007A7C7574757D7D787771787A88859794A3
:103D48009C8A86767374778282888694817C69706F
:103D5800747C7478838E8D7873738C8885788D974E
:103D6800998479797875616E7B8F848277828A8865
:103D7800817B8A888B7A7C7985848782828787870A
:103D88006E68667771716C7B8A8F8F83847F8C876E
:103D980088848D8D867365747E827074798B89852D
:103DA8007D818E89867B8683887F7F7E7F7A7580FA
:103DB8007E7F707270716C707E87928B8C899893FD
:103DC800887C7F88857A67737D847370778891860D
:103DD8007F7B8E8B8871707B87837B868D917878CB
:103DE800737E756D6F76828288829289887A7C84E8
:103DF8008688868F8C8B716B6D74726E77809094C9
:103E0800918284817E776F7C898F878785877D758E
:103E1800787D8279787677726C6C788C92928C96B1
:103E2800978E7E757B7C776B737D8B867E72707BBD
:103E3800787C7A878C8F8381848787828A858A7F3A
:103E48007F7F82766C6F6D77717376868F8C8783B0
:103E58008B8B8F858987837A71716C716A72778889
:103E68008D8F918F8F7F79717E80868996A09B8EAA
:103E78006C67676F6664697B8C827A75898C8D82C2
:103E880082909593878A7E7868666D7C827A7E7F39
:103E98008781817E8A928F877A7F7D8483828389D6
:103EA800857775737C6F696E7A817B7F849089854D
:103EB8007B899691877D84827E6460698284797F1C
:103EC800889A8F82778489897F7B7E7F857C8586A7
:103ED8008A7E7471777464696E807F8284929A9600
:103EE80087778288908380838D846A60697C767402
:103EF8007589948E85818B85837579858C877C837C
:103F0800878D756E73837E6F6C70807E80758591EA
:103F1800999183878E97857B727B7368656D7B79B2
:103F28007F85938D867D7E837F7D77869195888535
:103F38008B8F866C666C7C77747277827F7B7984D2
:103F48008B9087868A8B897E8585816F686F797368
:103F580067717E95938E878E958D776573818D8138
:103F6800858F9C9377696B776D6866768588827B89
:103F7800868D9183838B8E85787E7A786669738146
:103F8800827E868992868377838A90897E85888DCA
:103F9800777676837B73737D8477736C79797B7698
:103FA800809197958B8F8C887B7C7E7F78686C74EA
:103FB8007E7678808E968E8986938A7D676C7A84E1
:103FC800857F8E94977D6F67727366656B88939310
:103FD80080838D9385767F879186827F837A6A67CF
:103FE8006C78757F838E8F8984858B8381778283B4
:103FF800827C7D86868375797E8571696A727E7911
:1040080076778D9A9E908A8B8A8574767983756582
:10401800677A877D777B93938A787C8A897D6D7DA3
:104028008B94897F7D89887672728077726F7883A6
:10403800817E7C8A8D9389858082857F7E787E7457
:104048006F6B767E7C7F819094948688867F776F6D
:104058007B828A83878A908576747478686A6F838E
:104068008479737B8E94927F85898A7F767C80831E
:10407800706B71868579788092908B7F858584783E
:104088006E7B879184868890887065697671706D7B
:104098008087847A75869092868A8C938C7D7777D0
:1040A800796C6E74817E7A7E87928B8780898D8AFF
:1040B8007E737A80827A808893887169697067666E
:1040C800687C8B8F8B87919493808085908A7F7B87
:1040D800797C6E6E6F7A798087878B88877E8080FF
:1040E800867E7E7D7C83848A888678787873696802
:1040F800757F888282848C8A8680808D909185865F
:10410800837A6A5F66727D7D878B9794897D777FD6
:104118007E7E7A84858683868C887D6D7176796BC0
:104128006A6E7B8582878B9690897F8387857F7D62
:10413800848482726C6D7475767F8C978D837D858F
:104148008A837A777E84847E8487887B717980806D
:104158006D686D7A7D787A87999B90838788817658
:10416800727C86826F6D788785797981908E847E5E
:10417800858986797787908C7F838888766466704E
:10418800756E70778486827F838F91897E848A8F0B
:10419800857D8286806B6874827E797C8D99928217
:1041A800798285806F707D8989838388887567683F
:1041B8007578747278868A8882868C8B83797C84F9
:1041C8008A8281848B81736F7784817C7D878E8DD1
:1041D8007F787A817E7276818D8C86838582746CF5
:1041E800707C7A77757A83817D798088908B8A8FC5
:1041F8008C898081828275737983827879798081CC
:104208007F79808C8E82747A81897F7D89938B7582
:104218006B727D71666276889089828B95947E75C3
:104228007D8A8783808484756E707A79787D8087AB
:104238008A898285888D84787A848D84807F867C3B
:104248006D68747A6F6B6C7D868A86888D928C8196
:1042580082858E8A8583837D6D6467747B8382887B
:1042680092918A7D797C857F7D838F948F877974FD
:104278006664687373767A7E84828480888E928975
:1042880086888B867A7B7D80736F7582837B797B4A
:10429800868789878C8F90867B78757C7C7E7F85E6
:1042A80083776F7276706C6975868E8A878E97941D
:1042B800807678848582868B8A7D73747C7B7A7A13
:1042C800828B8B8A837E787874777A808D919286B8
:1042D80082766C696C6E717B808C8E8B7C7B7D8426
:1042E80085747985918A86858880707282938F8992
:1042F8008384827B756C737D807A7D878F8F8481C0
:104308007D7E6C6368767C77797A8E958F858B8FC6
:104318008E7B6D737C8A8984868F87767B8889708B
:1043280061677D88796D778B8E8277829C9F8E827C
:104338008D947C5A45597174697CA4C3B18E7C7C78
:104348007B614D51819FA49CA1AA98703D365872FB
:104358006E77A0C9C99877747F78646782A39C8DAB
:104368008C9180523737668F9590ABC1B385555580
:10437800595A4A5880B2C0B2B3A799734E313B67B5
:10438800858D96ADB7AD7C5C5D69655A6B91B7A9B3
:10439800887C877E614A4780B5AB8583968D5F317F
:1043A8003D668A8E9EC2E0CC95796F684A3A315351
:1043B80096AEA09EAEA99360505D7675708CA7B737
:1043C800987F747F7261444B879F89728A9C955F3E
:1043D8004B6C9BA9939DB1B4825952665F4B3F5376
:1043E800A3C5B599A4AE985D405871735F7999AF2C
:1043F800917C7F95906A514F899E8A708AA4A16F9B
:10440800516990A4827E8CA7906759707768535938
:10441800A8CDBB918F958649233D6C8B7E8DB1D1FC
:10442800B18770817F61423D81A2947481989B6DB0
:10443800576D98AF8A7E829B8B6D5E7179745E5DD5
:10444800A2BFAA7C777F835C41527C9E9194A4BFD3
:10445800AB82626867583D408CA89F8B97A5A17175
:10446800596686997D72728D8472647381847475BD
:10447800ACB69F7874797B5A4B5F86A2929499A8C0
:104488009579677373674D5799A9A38E969D905A2E
:1044980044537483727A88A69F92818E8E8161625A
:1044A80098A08E686471774E4A6A9DBBA8A29FA99E
:1044B8008A6A546B706850609EADA5838189865660
:1044C8004B5F889F8D8083A0A0937E857D704C452F
:1044D800778B89767B8F9C7B6F7A9FB195857D8A58
:1044E800786458686E6D5D6CA8BAB7958A857D52F8
:1044F800465C7F9E89848AA0958A767A76705B5618
:1045080089979A838591987B6A6E889B7F716B7F68
:104518007D777081908A756D9FB5AC86706F725388
:104528003F5375A29C989DAEA58B6F6569605142FB
:10453800779AA7978A8C937E5A5D709994857C891F
:10454800908D7D7988847D607697A18D6B616F7180
:104558005E677BA4B1A699918B756256676A6656A9
:10456800639DB6B095898D8C675B657B93817A7BFB
:104578008A8F8D838D8E8271567191968172728623
:10458800806A6A799DA28E827B7C776D6972757963
:104598006B77ABBBB48F706A6B544F5C76989BA3F8
:1045A8009F9E9C92827C74675F4C678B98947E7701
:1045B800838373707492A397817072787A767A7F06
:1045C800847F7289A19B826262707574747F9EAECB
:1045D800A79581797A7368666C6E695E84A7B3ABB8
:1045E8008C86867A655F5E7F8B847571818D898202
:1045F800888E8D7E68798F8E856C71797A757B81CE
:10460800999C8D756B717A7F7E848D8F8477809D60
:10461800968E6B6162655D5C6484A2A8A695939092
:104628008B7F7C7372655651768FA09282838386C6
:104638007B76748D8E8F7A777D8F908B8788826654
:104648004F557F8F9679787E8B838281909F958551
:10465800686C71776D6F6E84837B738DB1AFA07852
:10466800706D74646168899E9B927F8A888B7D7D5A
:10467800757669635D70979A9D7D7F7F8C7B6D5D94
:104688006B878989727D839B98978A8C816D5D5031
:1046980073808E7F7C8395988C7E76949894705DD9
:1046A800616D7B757A82998B7D5D729BA59B706C21
:1046B8006D7D6B6B678AA9AD9F787272817D7C7CFA
:1046C8008687746B5D85A7B1A1776E6E7564635B31
:1046D8007B8C918A7A8491A4A69A867A6D5B4F41E5
:1046E800568EA5B28E827F928C80696F8D918D6572
:1046F8006774919693848A8A816B565382999C89B0
:104708006C7B8492817F72918A856B556577908FD7
:104718008F8A9088867768628D979C775D606E82B5
:10472800787B749C9DAB917F7D8289776E677F864D
:104738008E7C6B5B7C919B7F6371829279776B91A6
:1047480097A28F757E7B887977667877897D726482
:104758007EAEB6AB71746E866B5F50739C9DA3770B
:10476800817E95877C6D76827C7A686F67939CA53D
:104778008162647087797D6F99999A7D6677849E46
:104788008F907C8B7D73645E636C9FAAB5877C7603
:10479800817F6F6459817E92766C70879E96907B3C
:1047A8008F848A6B5F53719C9E9A6A75768E807B24
:1047B8006D79948E96717E82A0A090786B787682BF
:1047C80068635077929580607788A48E8770899601
:1047D800887C5D71778D83837A828C8A8C7372640E
:1047E80089969A886F7C7D89777963797F858A7CB9
:1047F8008D8191858472767F878B757260868790AC
:104808007866707F998989709490927F6B767586A7
:104818007F8D808A7F8A7F6E5E598C99AA847F8279
:1048280096927C6653736E85727B808B9D99927984
:104838007E798A7C7354678C9C9A67666B8D847DBD
:10484800677A9B9B9B76848093888A7D7F837E8210
:104858006D6B4D78839F876E7283A18E8563867C8E
:104868008D746973789181816E8481907E7B667E78
:1048780098A1A3726F6A918986667188816A456377
:1048880077999D9B95A49B8671685E66909BA67D93
:1048980072667D8285655A7985AC8876607E908659
:1048A80066647BA0A8856275A7AC93636478AB96B1
:1048B8008863748378816A737A908D948074647144
:1048C8007D6C6A8194AF986C525783898B72828B06
:1048D800A79C7D72819DA19F7966677678546382D3
:1048E800A6B687614D728186686C7DA3B5846B57C7
:1048F8007B81887E7389918F6672869C9D7A706DA4
:10490800958D90757B827284717D768789918F876A
:104918007B6A726289959D98787259697789858AC8
:1049280082879486846E8A8996866B64646E5A74CC
:1049380083A49F8B716D8485916C7E7F9BA88E82EA
:10494800708884836364647E7A7B8985A17E7561BF
:10495800708AA48F74706E856D7567869EA28C7040
:1049680072777570929EBE9978626E817C76688542
:1049780089967878839C9E7F7262716B5F5B8AA34D
:10498800AC7C615B698584867C9B928B6F727D941D
:10499800A79D907872625B6A899EAA897765747C04
:1049A8008888818C878A6F66697D858E81787B741B
:1049B800697990AC9C7C6A647E85887081898775EA
:1049C80067738FA4978B808178626E8AA8B0896C90
:1049D8005B6C6C6D677998A2946E6B778B837C7A2D
:1049E8007F84737382929D7A676072818C858393CA
:1049F80095917678788B968C847370616B88939B8D
:104A08008680787F7E827E808C8389706D6B7788C4
:104A1800837E6B6B6E8398999B877B6D6F6F828BA0
:104A2800858B7B897F7778798E98937669647D9773
:104A38009C9D8483726D656C7A777E717B7B85879C
:104A48008A918E876D6760809CA498756E63686E86
:104A58007D8C9AA49285717884949A8D846F695517
:104A68006D8B9D9F7A6963747B847A869285816B4E
:104A78007B8D9B957B6C5D58557A9BBBAE85685D3D
:104A880075757F7991A4A08C6C7281958B7B696B0D
:104A98006D728D98B09676645F72797E7986888318
:104AA8007065718BA397876C6664668798AA977DF3
:104AB8006F696C737A7A9492948F878D8B958479C9
:104AC8006A62637198A2A37D5F515D6B7586889B4E
:104AD8009184716A7C8B97958B7C6B5E68869299C2
:104AE800817D8385857A8A8791877B78798888888C
:104AF800837E6F6A616690A3A88A6C656171738111
:104B080086928E7E787278808C92958B776C617F96
:104B1800989F9D79766E7D7D797675817C7F768884
:104B2800949F948276686F6A6C8B99A0805C5458C5
:104B38007B87948D979387746F7C88998981787621
:104B480075636C8B979D786C7189998B847989874B
:104B5800897D8691958B6E655C62696A84A4A79845
:104B68006761627B8882878192807F7275747B849B
:104B78008997918E7E717589878B71777D8E8F7FEE
:104B88007F668378867C7E807E887D82777E74725D
:104B9800648088908366686D8B8A998597908C89E4
:104BA80075837B9797998776666057698A98AD89E8
:104BB8007E677583847A6A797A907B7B7582918027
:104BC8007D6774767C6C8096A3966B6A6C9CA09AC1
:104BD80075697679866C7885A7AC917A6A767574EA
:104BE800597D95A8965B5153888C896C77929E96CF
:104BF8006C6E6F918E7F80809589745B7A99A19392
:104C0800666F769E918A717185858E727C7D8D8B9B
:104C1800796B6571787D6E748C909A6C66688493F4
:104C280082795C76798B818A95A4B59D866D717D34
:104C38007C705C7E9BB0975F5B618E7F73586F96CC
:104C48009D9268747F9789706C7F9F9B7B5650827A
:104C580090A080798A9AA9857A5A848E9D8D7A81C6
:104C680075807274727E838070565C8898A37864AD
:104C78006C859D8979557C86957B697F92B3977DF4
:104C8800656F8482624A6BAFC2B16D5E718A8D694D
:104C980064579097A1866F7D7A8B79787283908814
:104CA8007359689DAEAC72697C868D6B7163908C0C
:104CB8009380707F7C958B9084898C897A635784E4
:104CC8009196624E728B9E6E685190968E786C9813
:104CD8009AA685807F928C73636264828B907A68CF
:104CE800777496888F748C968B846379799C938774
:104CF80075747468685E6283A0A59973796F9089EA
:104D08008569779E9CA1727D718F867367728F9675
:104D1800906E59759A8F7A4E6C789B8F81707A96BF
:104D2800788661727897A5958167778385674C74D3
:104D3800B1C0A25B65729E8D6C5F72A68D90606F2C
:104D4800747F80777F7785868E795B6898A7A86F50
:104D5800626896967763609B929668728D9B9E8731
:104D6800847E89877F6C5B6B858D93636266919F78
:104D780085614C8394AA767285A3A783736E8E92FD
:104D88007D605675999A906B7376908C8978749338
:104D980093A3726F728A988C7267777F795D517A64
:104DA8009DA282505F698E80877B8BA29FA07E81A7
:104DB80072858382787986918A664D6F90A4845C27
:104DC8007286A28476608694918065787B8D817DD9
:104DD80071707778765F7196AEB88F877F8E968A76
:104DE80068627D829175737A91947D676779786F2F
:104DF800616289A0AC8C6E6F71807274678692A3B1
:104E0800967777799493897C838E877A617591A058
:104E180091636367877E79697B92928D6871758DDE
:104E28008D8175778F8B8568748D98936767729A73
:104E38009C8A655E7F857C61707F94A1A2A0968E16
:104E48008778626078869A8277737E816B574A6921
:104E580079998E94939EA78D7A626A6769617AA41C
:104E6800B4B47D656982877E7C7F989AA3897F77B1
:104E7800777A76736C797879616770788070717FEA
:104E8800A2A9A57F6F74788374818FA5A6937B767A
:104E98007C7460567E94A08C726B6E766F73758D81
:104EA8008A87837B7E767C7884888F8981747081F9
:104EB800878D737889A0A49C8971787077697486C6
:104EC800A3B0967353565759517694B0AD8B7E77ED
:104ED800837B71617A91A19A8B8B7F837871666DE0
:104EE8007587878EA0929073645A6B7F8A86787EC6
:104EF8007F8F7D65617994998F7C797C846F768BBF
:104F0800A3A7816B68818781686B808E917E7E867E
:104F1800939184726D70747378989D988167615FBE
:104F28007482908789857E7C7577718897A29C8F1B
:104F380084786F6571748C878187918D7A725F64CC
:104F4800667F858B92999C8F86746C68706B76925D
:104F58009DA183686069797F7F80969D9581787A25
:104F6800839295908B827667575E7B838D86767F5A
:104F7800838A7A756B7574838B88979EA6927A65F7
:104F88005E667D7C748B9899896464718790897951
:104F98007C898480727A858D857A747C8885756130
:104FA800667E8992797787989A8476697B829584D8
:104FB8008080888B79786E737F8A7F737F94988DD1
:104FC8006C63698487847B7D8E8B8F6F67677E8631
:104FD800868187989288695C6F929D95777D8C8A87
:104FE8007D6B5A64848F968483868E8778696D86F4
:104FF8008C8572707D918E765562899A9582797CBE
:10500800857F7A6D7990A1A3998D868678685B5C97
:105018006B959D92786B767F745F6173969D97828E
:10502800777B83837C88959A8E8E7D6F5D62797B92
:105038007E7A9199A2806C6A7E8A8081788D90921E
:1050480073666C7A817A7A73776C697E858E868AC4
:1050580089918B8B8F8B93817C6D757887888989F3
:10506800858079777069696A8698968D75777C806E
:10507800676F6B88898E8C82867D81747F7E93961C
:10508800988B8883745D6B76767B84989A967E730A
:10509800616D6C757E8A9695867A79767776818C3D
:1050A8008E816A5C7A8786767F8FA49A7E68698308
:1050B80080786A889DAD998A7B7F7F7267677E82D8
:1050C8007E64797C84716A74888D8188899A817BF1
:1050D80068757C838186999C95767A737F63626014
:1050E80087AEAA9B7E8A847C4F57618A92857C759D
:1050F8008A7973617E8BA194958D84806A675E82BC
:10510800808E8B9A958778696F71806C8390A89D43
:10511800877A7A837B7F788A83816C665E647A7B00
:10512800827E8E92927B75727A75758B94A39C940D
:105138008B8E86796F727F868680766267747173CC
:105148007B818C8E847F7A7F766B6E7B8B92A4AC0E
:10515800977C6E6F7877767A86898185807B73797C
:10516800818D887E83808470706A737E848A8C9433
:105178008E90807D686267757577919190808A823C
:105188008172757E818776878F9D817E82919086D8
:105198008577796F76636C5B6E858B897E8980886D
:1051A8006C72718589969C8D86758C8E91797E85B9
:1051B8009788716A6977637C82867C8E938D7D6C13
:1051C8007C767E6A757A90928A867874738E8485E6
:1051D800778687806A5E7F858B788B9099898783AD
:1051E800716E6B86828A7F8B8D8E867B756A777AE5
:1051F8008C7468566E857C77819C96907C857B81C3
:1052080081817D717D8B9F92928A968C7E6D6A7664
:1052180073796778767879827F7884878F777270E8
:105228007F808085828A88938F908083818277713E
:105238007172887978799596998B83847775656D7D
:10524800647C7D8387888A828783887C7F7772687D
:10525800738787888D8E8183828A80757784847C22
:10526800837E888A908985828880746E676F697763
:105278006F6C728B8F888685958885787D71768628
:105288008A918C988C8B7774747F887C756A847DFE
:1052980079747B7D818781857B8886867171787535
:1052A80080818F8B938C897D797A727373857676FA
:1052B8007C8C88889094947E7C787A6C797B7D7FCE
:1052C8007C817D878688797A77766E757E6F77811F
:1052D8008C7E868A928B80878B88767974828A9571
:1052E80093898B8B8A77726366647677727D858BF8
:1052F800768383888081878682798B83827B838487
:10530800828480838693887565787D70717E8989AB
:1053180094908B797A7774676B817E83818D86848C
:10532800817B7D79847D807C8C7D6E768184778598
:1053380089958A8985837B7B81727274857D7F8656
:10534800908A83857C796E78717277817E79909363
:1053580097888C827A696A787B8D909D8B8D868000
:1053680074747F787A6E7E726F717E7E7888868D8F
:105378008693918D7C7E84706B728C8D928C877CE9
:10538800787A73706E837F7D77827E7F8C89887947
:1053980085848574797D7C7E7982778791998981E6
:1053A800807D7F737C6B6B71837B74848B95858820
:1053B80080837B838374787D8C7C82868F8B8A84C0
:1053C8007168657D736F7483807F87898F8A948CF9
:1053D80082717C847D7D82887D85868C82858984A6
:1053E80070626B626C798E8485878F8A7C878486ED
:1053F80077827A7775818D86898484747B808686A6
:10540800878B756A6C807D7D80868C89908682709A
:10541800787A746A6E80869692958A847C757070A4
:10542800837E7674827E7D83889087878483778065
:105438008481808384777A818A837D797D7C757A7B
:10544800726F717E7570798997949791927E78754D
:105458007979818C878B898B82807A78766D717562
:10546800767480817C7D757A7D88888A898689832F
:1054780080747A7B8182838A8D9086847D817E6D1B
:105488006467797F7E7B7F8489887E8185857F7E3E
:105498008084858387888A888D87817D75605A6432
:1054A8006565718895A7A596868D8A7A79838F9484
:1054B80095887F7C7C72777C7C7F86826D676C6A3E
:1054C800646F77809094827A85867F85848799A196
:1054D800937E837D73757B8897A48F726A71685BEE
:1054E8005D6273888C807A7C787783838A919386CF
:1054F80084908A85868D8A959A8779746F626369A4
:105508006E767D79767C7C736E757A8894958686BE
:105518008D8583838486989B8C80847B6C69677572
:10552800818779727B8077777D7D8D9488777E8778
:10553800807E7E8192A091807C8B897C72666F8050
:1055480086726B74757677747388918A808286897F
:10555800918B878C979486807B75777D797B7A6F22
:1055680064666F6A6A74798B9693807F898B7F8172
:105578008A909F978475868981787177858B7567FE
:105588006F79726F71707F8D887A7B877E7D7F825D
:1055980089999C8C88817B777D7E7D8B8D837674C1
:1055A8006F686E6C71798684767B7E807C807B8A5E
:1055B8009B9C93888E867D7972778A9287817F7586
:1055C800686568697982776F77817E81858C949A1E
:1055D8009283878A818089888B958774757F827D7D
:1055E8008178757C7E716D787271757675878F8616
:1055F8008489857D82847D858A838788908278776F
:1056080079828277656C6F716E6E707C908E8488FB
:1056180095968B8481849CA092807F7F7E7F768103
:1056280085887A6E6B6768676566718088898989FD
:10563800867D888A939591887F8C867E76797F8F00
:105648009179747977646B77778690827072838C9E
:105658008982798A94917B777B787A787E7E8B8D24
:105668008E8A7E76737269606B73727682817181BD
:10567800909A98A4A098917F7C787974818D8A8576
:10568800848780706566727F7A6E676971818370BE
:105698007A96A5928488908D817E7C8B908E8A7C68
:1056A800797B8A887F878B86717070735F566A8171
:1056B800888995928E898D878077838174717C8A99
:1056C800777473818896887670656A676E5C6C8972
:1056D80091858DA1A19B92908A938C8A776C6D7C21
:1056E8007F6F75828D7C7F7A76675B5D6883838246
:1056F800838B87858A82859CA7937B7C847E726D49
:105708007988969A93837B86837968666C767C69B8
:105718006C747F80898D8F9897917C7A77807D7261
:105728007A918E7F81817D7B837271787C6C7177B1
:10573800757D838282A5A79A858B8C877B6A718207
:105748008F878071767E7E6E6C7A857A69656674DD
:10575800716F71858E9495918D808580817A8992FB
:105768008E8B8B8F798081827E8B8D85796B686734
:1057780071616C808574808C8D8C8D8787958D8503
:10578800787A74827B6A7491917F7E797E6F6F6478
:105798006E7E878F908F8A9B8D837E92998D7F787E
:1057A80081797A76756B7C8982757170747D726B7C
:1057B80071847976797879949D8B86969D8E887D8B
:1057C800807D7D7885898386817F7D8981746C76EB
:1057D800767371696F72706F8999978F8E8A8581D8
:1057E8007E706679929A908E8A7B707772747C7ECE
:1057F8007573756C7181858098A2988D8F86818369
:105808007E7F858879786F788487746A7C8B8778BF
:105818006F6775726A6979879DA18F838990847E85
:1058280076868E8E81827D7E8A897F7F8A81756E5B
:105838006D616D6B6775868289998D808487757CAB
:105848008286838883817F7D7F7D82838172707069
:1058580075727972758B948984938E8C918D868CF0
:105868008B80797C777B746E798D897F7D736E6E82
:105878006B64727D8485847D8C928B7F8085878A1A
:1058880081827F88888C848B9790817A7C787675E2
:10589800656076817A7C74688191857A8A8B89873C
:1058A8008172798A86807E9299917B78706F716C0B
:1058B800697384817D807E7D8C88808B9E958B87A3
:1058C800837A7F7F7B8487878681777C7A6E646C16
:1058D800717371737A807C7B878B8C8F8E838188C0
:1058E800888082888F92918D8A847D78726F767D88
:1058F800777474747D7A6B687B8D8C8E87828592C1
:1059080086767D8C958C857C7F8482756C71797A9E
:105918006F65647184827C838E90908D83848D9171
:1059280087888B8787857D767B7E7B7A7A736F7392
:10593800746F6F7576757C8486837E8285867F79A1
:10594800828C90918E888A908A7E7D868E8F8378CD
:10595800777B776E6F777D7D776A6A727A787B82DC
:10596800898F8D8B8282848A8A8C8D8C89837D76BF
:105978007977777A807D7E817C7B7A7B7B878B9138
:105988008F8478737D807C717987908D817A788017
:105998007B706D7985847E7B828B8E827B7B7E8219
:1059A800817D797E7F77778286898A8287877E75EF
:1059B800777D7D7F82827D817B7979828A878681E6
:1059C8007E797C7B7E7E858A85817A7C7C7E7771F8
:1059D80072787B7F7A757F898A8781828E96928892
:1059E8008989847D80808284807972797E7B7A79C6
:1059F800767371737678797A7C8A8A8A827F7F86D1
:105A080089807C818B8D8D83868A8A7F77767C8856
:105A18008E847575787C717071757F89867C7B7CC6
:105A2800807E83868B8D8B847F7B7D81838281873B
:105A38008880716E6A71787D80868785837F818290
:105A48008C8C88878A8782817F78737A828B888218
:105A5800736F73756F6C77828A857D7A84847E7B99
:105A68007C878F8B807A7A8386868282878B8A80EE
:105A78007E7A797376777B81837F757977767A8377
:105A88008484838687847F7A7E848B8D8C847F7DD3
:105A98007B756F6F76817F7C7F8185857E787E8B35
:105AA800938C88828184837D7C7E8489827E7A7EC1
:105AB8007772747C81818284867F7D757479818315
:105AC8007E8184817D7A787A868C8B8586848180B4
