:020000040800F2
:100000000050002021020008270200082B020008EF
:100010009D020008A1020008E9020008000000009B
:100020000000000000000000000000003103000894
:10003000350300080000000039030008710A0008B9
:100040004D0300084D0300084D0300084D03000850
:100050004D0300084D0300084D0300084D03000840
:100060004D0300084D0300084D0300084D03000830
:100070004D0300084D0300084D0300084D03000820
:100080004D0300084D0300084D0300084D03000810
:100090004D0300084D0300084D0300084D03000800
:1000A0004D0300084D0300084D0300084D030008F0
:1000B0004D0300084D0300084D0300084D030008E0
:1000C0004D0300084D0300084D0300084D030008D0
:1000D0004D0300084D0300084D0300084D030008C0
:1000E0004D0300084D0300084D0300080000000008
:1000F0000000000000000000000000000000000000
:1001000000000000000000005FF808F100B583B0B7
:1001100000F0EEFA304B314A1360314A1360314B34
:10012000314A32498B4204D21168196004330432D7
:10013000F7E72A4B1A682E4B9A4200D0FEE7284B6D
:100140001A682C4B9A42F9D1234B2B4A13602B4A45
:1001500013602B4B02E000221A600433294A9342B9
:10016000F9D3254B1B6813B9244B1B6803B1FEE779
:1001700000F0CAFA694601A800F04CFA224C234B61
:10018000E41AA4100025AC4214DC214C214BE41AE3
:10019000A4100025AC4213DC0099019800F06CFC1F
:1001A00005461D4C1D4BE41AA410002C0EDC2846FD
:1001B00000F002FA154B53F8253098470135E2E775
:1001C000144B53F8253098470135E3E7013C134BB6
:1001D00053F824309847E8E7BABADECA0000002096
:1001E0008400002000000020A415000888000020E2
:1001F000785634123254769888000020240100206A
:1002000088000020280100207803000878030008F7
:1002100078030008780300087803000878030008D2
:1002200008B5FFF773FF00BEFEE71EF0040F0CBF1A
:10023000EFF30880EFF309807146414A10472DE93A
:10024000F04182B004468846124B5E6B9F6B9D6AFC
:100250001B6B13F0020F03D00E4BDB6A002B0CDB81
:100260000D4800F0E9F9CDF800803B4632462946BA
:10027000204600F04DFA00BEFEE74BF6AB6100F001
:10028000C1FA0028ECD0034B4FF00042DA6202B012
:10029000BDE8F08100ED00E00C15000800BEFEE7AF
:1002A0001EF0040F0CBFEFF30880EFF309807146D6
:1002B000244A10472DE9F04182B004468846084B95
:1002C0005E6B9F6B9D6A074800F0B6F9CDF8008021
:1002D0003B4632462946204600F01AFA00BEFEE7A9
:1002E00000ED00E01C1500081EF0040F0CBFEFF33A
:1002F0000880EFF309807146134A10472DE9F04159
:1003000082B004468846084B5E6B9F6B9D6A074827
:1003100000F092F9CDF800803B463246294620464F
:1003200000F0F6F900BEFEE700ED00E02815000839
:1003300000BEFEE700BEFEE700BEFEE7704700001D
:100340003F020008B5020008FD02000800BEFEE7FB
:10035000A41500080000002088000020A415000853
:10036000000000000000000088000020280100209C
:08037000000000000000000085
:10037800F8B505460C46494B98421BD003F58063F7
:10038800984217D003F58063984213D003F5806331
:1003980098420FD003F5806398420BD003F5806331
:1003A800984207D003F58063984203D0B2213C48B5
:1003B80000F034F9E3786BB1042B0BD0282B09D06B
:1003C800482B07D0142B05D0102B03D01C2B01D0A1
:1003D800182B14D12388BBB1E37803F00F063046FD
:1003E80013F0100F06D0A378013BDBB2022B10D814
:1003F800A078304323785BB32E68002310E0B32144
:10040800274800F00BF9E5E7B421254800F006F984
:10041800E2E7BB21224800F001F9E9E76A6101330C
:10042800072B14D801229A40218832EA0101F6D11B
:1004380099000F278F4026EA070600FA01F10E43BC
:10044800E1782829EAD04829E9D12A61E7E72E602E
:100458002388FF2B20D96E68002303E06A6116E029
:100468002A610133072B16D803F1080101228A40BB
:10047800218832EA0101F4D199000F278F4026EA3A
:10048800070600FA01F10E43E1782829E6D0E17861
:100498004829E6D1E4E76E60F8BD00BF00080140D6
:1004A8004C13000838B504460D46144B98421CD02E
:1004B80003F58063984218D003F58063984214D0FE
:1004C80003F58063984210D003F5806398420CD0FE
:1004D80003F58063984208D003F58063984204D0FE
:1004E80040F26911064800F099F80DB1256138BD50
:1004F8004FF4B571024800F091F8F7E700080140A1
:100508004C13000838B504460D46144B98421CD0CD
:1005180003F58063984218D003F58063984214D09D
:1005280003F58063984210D003F5806398420CD09D
:1005380003F58063984208D003F58063984204D09D
:1005480040F27911064800F069F80DB1656138BDCF
:100558004FF4BD71024800F061F8F7E70008014068
:100568004C13000838B504460D460E4B034003B93A
:1005780020B940F24A410C4800F050F8012D06D845
:100588005DB90A4A936923EA0404946138BD40F2CC
:100598004B41054800F042F8F2E7044A93691C43CE
:1005A8009461F3E70200C0FF8013000800100240C6
:1005B800FEE7000008B5034800F052F80120FFF7F5
:1005C800F7FF00BFB013000808B503460C4A1268CD
:1005D8005AB10B4A1068033323F003030344094A52
:1005E800934206D8064A136008BD054A06491160B9
:1005F800EFE700F06FFA0C2303604FF0FF30F3E7EA
:100608008C000020004C00202801002001230360FA
:10061800014B0B60704700BF0400002008B50A4674
:100628000146024800F004F8FFF7C4FFC4130008AD
:100638000FB400B583B004AB53F8042B01938021A9
:10064800064800F081FA002803DD0146034800F05F
:1006580047F803B05DF804EB04B07047940000203D
:1006680010B5044600F03CFA0146204600F038F880
:100678000121024800F034F810BD00BF88140008BA
:100688002DE9F04385B004460F4643560BB10E469C
:100698001EE0042528462146ABBE0446384605B070
:1006A800BDE8F08314F9011B04AA1A4402F8101CCF
:1006B8000133AB42F6D304AA1344002203F8102CEA
:1006C8004FF00408E94640464946ABBE8046761BD3
:1006D800002EE3D03546102E28BF10250023E8E76A
:1006E80008B5FFF7CDFF08BD08B500F0FDF8024AD0
:1006F800024B9A6008BD00BF0000000800ED00E052
:1007080008B500F019F908BDF8B504460D461746B6
:100718001E462748FFF78CFF21682648FFF788FF09
:1007280061682548FFF784FFA1682448FFF780FF28
:10073800E1682348FFF77CFF21692248FFF778FF2B
:1007480061692148FFF774FFA1692048FFF770FF2E
:10075800E1691F48FFF76CFF1E48FFF769FF29464C
:100768001D48FFF765FF1D4CE16A1D48FFF760FF54
:10077800216B1C48FFF75CFFE16B1B48FFF758FF34
:1007880015F0800F0AD115F4004F0CD11748FFF768
:100798004FFF06991648FFF74BFFF8BD3946154835
:1007A800FFF746FFEFE731461348FFF741FFEDE754
:1007B800F0130008001400081014000820140008A2
:1007C8003014000840140008501400086014000891
:1007D80070140008801400088C14000800ED00E074
:1007E8009C140008AC140008BC140008EC140008A1
:1007F800F4140008CC140008DC14000883691A8873
:100808008A4201D0002070470268033A012A03D8BF
:1008180002338361012070470020704782B00023B3
:10082800019300932C4A136843F4803313602A4BD6
:100838001B6803F400330093019B01330193009B71
:100848001BB9019BB3F5A06FF1D1234B1B6813F4BF
:10085800003F06D001230093009B012B04D002B077
:10086800704700230093F7E71C4B1A6842F0100208
:100878001A601A6822F003021A601A6842F002022B
:100888001A60A3F580535A685A605A685A605A68C1
:1008980042F480625A605A6822F47C125A605A689C
:1008A80042F4E8125A601A6842F080721A600A4BE1
:1008B8001B6813F0007FFAD0074B5A6822F0030236
:1008C8005A605A6842F002025A60034B5B6803F0B0
:1008D8000C03082BF9D1C2E70010024000200240A7
:1008E80008B5FFF79BFF08BD08B5104B1A6842F022
:1008F80001021A6059680E4A0A405A601A6822F0C2
:10090800847222F480321A601A6822F480221A60F3
:100918005A6822F4FE025A604FF41F029A60FFF7E9
:10092800DFFF044B4FF000629A6008BD00100240E0
:100938000000FFF800ED00E01F4B5B6803F00C03BC
:10094800042B15D0082B17D01BB11C4B1C4A1A605E
:1009580002E01A4B1A4A1A60174B5B68C3F3031379
:10096800184AD35CDAB215490B68D3400B6070475C
:10097800124B134A1A60EFE70F4A53685268C3F3E1
:100988008343023312F4803F0AD00B4A526812F4B0
:10099800003F0BD00C4A02FB03F3084A1360DBE765
:1009A800094A02FB03F3054A1360D5E7044A02FB30
:1009B80003F3024A1360CFE7001002401C00002036
:1009C80000127A000C00002000093D0030B583B009
:1009D80001210420FFF7C6FD0225ADF804500323CA
:1009E8008DF8063010238DF80730054C01A92046F4
:1009F800FFF7BEFC29462046FFF784FD03B030BD53
:100A0800000801400A4B1B680A4AA2FB03239B0902
:100A1800013BB3F1807F09D2074A5360074BF021AD
:100A280083F823100023936007231360704700BFE7
:100A38001C000020D34D621010E000E000ED00E043
:100A4800034B1860024B1B68002BFBD1704700BF9B
:100A580020010020034B1B681BB1024A1368013BAD
:100A6800136070472001002008B5FFF7F3FF08BDA9
:100A780010B51348FFF7F4FD124B19681248FFF739
:100A8800D7FDFFF7BFFFFFF7A1FF00240FE040F2FB
:100A9800EE20FFF7D5FF02210C48FFF733FDFA20BF
:100AA800FFF7CEFF013421460948FFF7C1FD0221B7
:100AB8000648FFF7F7FC002CE9D14FF47A70E8E715
:100AC800381500081C0000204C15000800080140DB
:100AD80064150008014B1868704700BF200000200B
:100AE800034613F8012B002AFBD1181A0138704766
:100AF80030B5141E05469BB0184605DA8B234FF017
:100B0800FF302B601BB030BD4FF40273ADF80C30D2
:100B18000CBF234604F1FF33029305934FF6FF738E
:100B280000910491ADF80E3002461E9B6946284696
:100B380000F072F8431CBCBF8B232B60002CE1D063
:100B48000022009B1A70DDE707B5009313460A469A
:100B5800014603480068FFF7CBFF03B05DF804FBCC
:100B6800200000202DE9F0478E6882469E420C4600
:100B78009046994637D88A8912F4906F31D002236B
:100B8800256809696F1A656905EB450595FBF3F555
:100B980009F101033B449D4238BF1D46530530D53A
:100BA800294600F035FB064650B90C234FF0FF30BC
:100BB800CAF80030A38943F04003A381BDE8F08759
:100BC8003A46216900F0B4FAA38923F4906343F00C
:100BD8008003A38126613E4426604E466561ED1B75
:100BE800A5604E4500D94E4632464146206800F081
:100BF800AAFAA36800209B1BA36023681E442660F2
:100C0800DCE72A4600F05EFB06460028E2D12169AF
:100C1800504600F0B1FAC8E72DE9F04F9DB00393B4
:100C28008B8980461D060C4616460FD50B696BB995
:100C3800402100F0EDFA2060206128B90C23C8F8A3
:100C480000304FF0FF30C7E0402363610023099371
:100C580020238DF8293030234FF0010B8DF82A30EE
:100C680037463D4615F8013B0BB1252B3ED1B7EB76
:100C7800060A0BD05346324621464046FFF772FF1C
:100C8800013000F0A480099B534409933B78002B62
:100C980000F09D8000234FF0FF32CDE90523049337
:100CA80007938DF853301A932F46052217F8011B26
:100CB8004F4800F02FFA049BD0B9D90644BF202230
:100CC8008DF853201A0744BF2B228DF853202A7819
:100CD8002A2A15D02F4600200A25079A394611F8E6
:100CE800013B303B092B4DD9B8B10FE02F46B8E78F
:100CF8003F4A3D46801A0BFA00F018430490D3E7A8
:100D0800039A111D12680391002A01DB079204E07F
:100D1800524243F00203079204933B782E2B0CD1E6
:100D28007B782A2B33D1039B02371A1D1B68039249
:100D3800002BB8BF4FF0FF3305932E4D03223978AF
:100D4800284600F0E7F938B14023401B03FA00F0C9
:100D5800049B0137034304933978062226487E1CF6
:100D68008DF8281000F0D6F9002838D0234B13BB93
:100D7800039B073323F0070308330393099B4B4472
:100D880009936DE705FB023201200F46A6E7002311
:100D98000A25194601370593384610F8012B303AD1
:100DA800092A03D9002BC8D00591C6E705FB012104
:100DB80001230746F0E703AB00932246104B04A932
:100DC8004046AFF30080B0F1FF3F8146D6D1A389FA
:100DD8005B063FF536AF09981DB0BDE8F08F03AB51
:100DE80000932246064B04A9404600F081F8EAE742
:100DF80070150008761500087A1500080000000034
:100E08006D0B00082DE9F04791461F468A680B696B
:100E180006469342B8BF1346C9F8003091F84320FC
:100E28000C46DDF8208012B10133C9F80030236880
:100E3800990642BFD9F800300233C9F80030256856
:100E480015F0060507D104F1190AE368D9F800205E
:100E58009B1AAB4229DC94F843302268003318BF50
:100E6800012392062ED404F1430239463046C04786
:100E7800013021D02368E56803F00603042B18BF6E
:100E88000025D9F800204FF0000908BFAD1AA36863
:100E9800226908BF25EAE5759342C4BF9B1AED187D
:100EA8001A344D451AD1002008E00123524639462C
:100EB8003046C047013003D14FF0FF30BDE8F0871E
:100EC8000135C2E73020E11881F843005A1C94F834
:100ED80045102244023382F84310C4E70123224616
:100EE80039463046C0470130E6D009F10109D8E754
:100EF8002DE9F04301F1430C0C46097E85B06E29BB
:100F08001746064698460C9A00F0B38022D8632903
:100F180036D00AD8002900F0B980582900F083801B
:100F280004F1420584F8421032E0642901D06929AD
:100F3800F6D120681368050603F104012AD51B6859
:100F48001160002B03DA2D225B4284F843206F489E
:100F58000A2239E0732900F09D8008D86F2920D033
:100F68007029DDD1236843F02003236003E075294D
:100F780017D07829D4D17823654884F8453055E0CE
:100F8800136804F14205191D1B68116084F842308A
:100F980001238CE01B6810F0400F116018BF1BB2D2
:100FA800CFE713682568181D1060280601D51B684F
:100FB80002E06806FBD51B886F2914BF0A220822A5
:100FC8005248002184F843106568002DA560C0F2DE
:100FD8009580216821F004012160002B3DD1002D6E
:100FE80040F08E806546082A0BD12368DB0708D5B8
:100FF800236962689A42DEBF302305F8013C05F197
:10100800FF35ACEB05032361CDF800803B4603AA0E
:1010180021463046FFF7F6FE01304DD14FF0FF3044
:1010280005B0BDE8F083394884F845101368216895
:101038001D1D1B6815600A060BD5CA0744BF41F081
:10104800200121601BB9226822F0200222601022B0
:10105800B7E74D0648BF9BB2EFE76546B3FBF2F131
:1010680002FB1133C35C05F8013D0B460029F5D19D
:10107800B9E713682568181D6169106028061B68A0
:1010880001D5196002E06A06FBD519800023654680
:101098002361B9E71368191D11601D686268002192
:1010A800284600F037F808B1401B60606368236188
:1010B800002384F84330A7E723692A463946304697
:1010C800C0470130AAD023689B0713D4E068039B6C
:1010D8009842B8BF1846A3E701234A463946304626
:1010E800C04701309AD00135E368039A9B1AAB4296
:1010F800F2DCEBE7002504F11909F5E7002BACD188
:10110800037804F1420584F842306CE78115000841
:101118009215000810B5C9B202449042034601D1A5
:10112800002303E01C7801308C42F6D1184610BD2C
:1011380010B5431E0A44914200D110BD11F8014B6D
:1011480003F8014FF7E7884210B501EB020307D80F
:10115800421E99420AD011F8014B02F8014FF8E7F4
:101168008342F5D98118D21AD34200D110BD13F8A1
:10117800014D01F8014DF7E738B50546002943D080
:1011880051F8043C0C1F002BB8BFE41800F0D0F84D
:101198001E4A1368104633B9636014602846BDE8D8
:1011A800384000F0C6B8A3420BD9216862189342B0
:1011B80001BF1A685B685218226063600460EDE73B
:1011C80013465A680AB1A242FAD919685818A042B7
:1011D8000BD120680144581882421960DED110688A
:1011E8005268014419605A60D8E702D90C232B6071
:1011F800D4E7206821188A4201BF1168526809188B
:10120800216062605C60C9E738BD00BF140100203E
:1012180070B5CD1C25F0030508350C2D38BF0C25FD
:10122800002D064601DBA94203D90C2333600020B8
:1012380070BD00F07DF8214A1468214691B9204C10
:1012480023681BB9304600F063F820602946304611
:1012580000F05EF8431C24D10C233046336000F0C4
:1012680068F8E4E70B685B1B18D40B2B0FD90B60ED
:10127800CC18CD50304600F05CF804F10B00231D6B
:1012880020F00700C31AD3D05A42E250D0E74B6887
:101298008C4216BF636013600C46EBE70C46496846
:1012A800CCE7C41C24F00304A04205D0211A304620
:1012B80000F02EF80130CFD02560DBE714010020C4
:1012C80018010020F8B5074614460E4621B9BDE8B6
:1012D800F8401146FFF79CBF22B9FFF74DFF25469E
:1012E8002846F8BD00F026F8A0420FD2214638461D
:1012F800FFF78EFF05460028F2D031462246FFF759
:1013080017FF31463846FFF737FFE9E73546E7E785
:1013180038B50023054C054608462360FFF754F905
:10132800431C02D1236803B12B6038BD1C01002087
:101338007047704751F8043C181F002BBCBF0B586E
:10134800C01870472E2E2F73797374656D2F7372C2
:10135800632F73746D333266312D737464706572E4
:101368006970682F73746D3332663130785F6770D7
:10137800696F2E63000000002E2E2F737973746539
:101388006D2F7372632F73746D333266312D7374DE
:10139800647065726970682F73746D3332663130AA
:1013A800785F7263632E630061626F727428292C00
:1013B8002065786974696E672E2E2E0061737365D7
:1013C80072745F706172616D2829206661696C654D
:1013D800643A2066696C6520222573222C206C698A
:1013E8006E652025640A0000537461636B20667281
:1013F800616D653A0A000000205230203D2020250A
:101408003038580A00000000205231203D202025A5
:101418003038580A00000000205232203D20202594
:101428003038580A00000000205233203D20202583
:101438003038580A0000000020523132203D202563
:101448003038580A00000000204C52203D2020254A
:101458003038580A00000000205043203D20202545
:101468003038580A0000000020505352203D2025F3
:101478003038580A000000004653522F4641523A6D
:101488000A0000002043465352203D2020253038D2
:10149800580A00002048465352203D202025303865
:1014A800580A00002044465352203D202025303859
:1014B800580A00002041465352203D20202530384C
:1014C800580A0000204D4D464152203D2025303815
:1014D800580A00002042464152203D20202530383D
:1014E800580A00004D6973630A000000204C522F0F
:1014F8004558435F52455455524E3D202530385883
:101508000A0000005B486172644661756C745D0A8C
:10151800000000005B4275734661756C745D0A00DB
:101528005B55736167654661756C745D0A00000000
:1015380048656C6C6F2041524D20576F726C642166
:101548000000000053797374656D20636C6F636BE2
:101558003A20257520487A0A000000005365636F19
:101568006E642025750A0000232D302B2000686C3E
:101578004C006566674546470030313233343536AE
:1015880037383941424344454600303132333435E7
:0B159800363738396162636465660015
:1015A4007856341290000020000000000000000073
:1015B40000000000010203040607080900A24A040F
:1015C40024000020000000000000000000000000D3
:1015D4000000000000000000000000000000000007
:1015E40000000000000000000000000000000000F7
:1015F40000000000000000000000000000000000E7
:1016040000000000000000000000000000000000D6
:1016140000000000000000000000000000000000C6
:0816240000000000325476982A
:040000050800010DE1
:00000001FF
